{
  "_format": "hh-sol-artifact-1",
  "contractName": "ArtisanNFTFactory",
  "sourceName": "contracts/ArtisanNFTFactory.sol",
  "abi": [
    {
      "anonymous": false,
      "inputs": [
        {
          "indexed": true,
          "internalType": "address",
          "name": "artisan",
          "type": "address"
        },
        {
          "indexed": false,
          "internalType": "address",
          "name": "collectionAddress",
          "type": "address"
        }
      ],
      "name": "CollectionCreated",
      "type": "event"
    },
    {
      "anonymous": false,
      "inputs": [
        {
          "indexed": true,
          "internalType": "address",
          "name": "artisan",
          "type": "address"
        },
        {
          "indexed": true,
          "internalType": "address",
          "name": "recipient",
          "type": "address"
        },
        {
          "indexed": true,
          "internalType": "uint256",
          "name": "tokenId",
          "type": "uint256"
        },
        {
          "indexed": false,
          "internalType": "string",
          "name": "tokenURI",
          "type": "string"
        }
      ],
      "name": "NFTMinted",
      "type": "event"
    },
    {
      "inputs": [
        {
          "internalType": "address",
          "name": "",
          "type": "address"
        }
      ],
      "name": "artisanToCollection",
      "outputs": [
        {
          "internalType": "address",
          "name": "",
          "type": "address"
        }
      ],
      "stateMutability": "view",
      "type": "function"
    },
    {
      "inputs": [
        {
          "internalType": "address",
          "name": "artisan",
          "type": "address"
        },
        {
          "internalType": "string",
          "name": "name",
          "type": "string"
        },
        {
          "internalType": "string",
          "name": "symbol",
          "type": "string"
        }
      ],
      "name": "createCollection",
      "outputs": [
        {
          "internalType": "address",
          "name": "",
          "type": "address"
        }
      ],
      "stateMutability": "nonpayable",
      "type": "function"
    },
    {
      "inputs": [
        {
          "internalType": "address",
          "name": "artisan",
          "type": "address"
        },
        {
          "internalType": "address",
          "name": "recipient",
          "type": "address"
        },
        {
          "internalType": "uint256",
          "name": "tokenId",
          "type": "uint256"
        },
        {
          "internalType": "string",
          "name": "tokenURI",
          "type": "string"
        }
      ],
      "name": "mintNFTForProduct",
      "outputs": [
        {
          "internalType": "uint256",
          "name": "",
          "type": "uint256"
        }
      ],
      "stateMutability": "nonpayable",
      "type": "function"
    }
  ],
  "bytecode": "0x608060405234801561000f575f80fd5b50613a7f8061001d5f395ff3fe608060405234801562000010575f80fd5b506004361062000044575f3560e01c806335a9c59614620000485780634a9e194e146200007e5780638547af6d14620000b4575b5f80fd5b62000066600480360381019062000060919062000784565b620000ea565b6040516200007591906200082c565b60405180910390f35b6200009c600480360381019062000096919062000847565b620002d0565b604051620000ab91906200082c565b60405180910390f35b620000d26004803603810190620000cc9190620008af565b620002ff565b604051620000e191906200094e565b60405180910390f35b5f8073ffffffffffffffffffffffffffffffffffffffff165f808673ffffffffffffffffffffffffffffffffffffffff1673ffffffffffffffffffffffffffffffffffffffff1681526020019081526020015f205f9054906101000a900473ffffffffffffffffffffffffffffffffffffffff1673ffffffffffffffffffffffffffffffffffffffff1614620001b7576040517f08c379a0000000000000000000000000000000000000000000000000000000008152600401620001ae90620009ed565b60405180910390fd5b5f84848430604051620001ca90620005ac565b620001d9949392919062000a81565b604051809103905ff080158015620001f3573d5f803e3d5ffd5b5090505f819050805f808873ffffffffffffffffffffffffffffffffffffffff1673ffffffffffffffffffffffffffffffffffffffff1681526020019081526020015f205f6101000a81548173ffffffffffffffffffffffffffffffffffffffff021916908373ffffffffffffffffffffffffffffffffffffffff1602179055508573ffffffffffffffffffffffffffffffffffffffff167f5d0de243db1669e3a7056744cd715c625f0c1c348736c2c2d53d0ddebff1a6c782604051620002bc91906200082c565b60405180910390a280925050509392505050565b5f602052805f5260405f205f915054906101000a900473ffffffffffffffffffffffffffffffffffffffff1681565b5f805f808773ffffffffffffffffffffffffffffffffffffffff1673ffffffffffffffffffffffffffffffffffffffff1681526020019081526020015f205f9054906101000a900473ffffffffffffffffffffffffffffffffffffffff1690505f73ffffffffffffffffffffffffffffffffffffffff168173ffffffffffffffffffffffffffffffffffffffff1603620003a1576200039e8662000498565b90505b8073ffffffffffffffffffffffffffffffffffffffff16631e5769128686866040518463ffffffff1660e01b8152600401620003e09392919062000ada565b6020604051808303815f875af1158015620003fd573d5f803e3d5ffd5b505050506040513d601f19601f8201168201806040525081019062000423919062000b32565b50838573ffffffffffffffffffffffffffffffffffffffff168773ffffffffffffffffffffffffffffffffffffffff167f62e892e3122007df811ddcdf33dc70fd7c6c1d0301fba644e97cbbcdb71c88a98660405162000484919062000b62565b60405180910390a483915050949350505050565b5f808230604051620004aa90620005ac565b620004b792919062000c20565b604051809103905ff080158015620004d1573d5f803e3d5ffd5b5090505f819050805f808673ffffffffffffffffffffffffffffffffffffffff1673ffffffffffffffffffffffffffffffffffffffff1681526020019081526020015f205f6101000a81548173ffffffffffffffffffffffffffffffffffffffff021916908373ffffffffffffffffffffffffffffffffffffffff1602179055508373ffffffffffffffffffffffffffffffffffffffff167f5d0de243db1669e3a7056744cd715c625f0c1c348736c2c2d53d0ddebff1a6c7826040516200059a91906200082c565b60405180910390a28092505050919050565b612dd48062000c7683390190565b5f604051905090565b5f80fd5b5f80fd5b5f73ffffffffffffffffffffffffffffffffffffffff82169050919050565b5f620005f682620005cb565b9050919050565b6200060881620005ea565b811462000613575f80fd5b50565b5f813590506200062681620005fd565b92915050565b5f80fd5b5f80fd5b5f601f19601f8301169050919050565b7f4e487b71000000000000000000000000000000000000000000000000000000005f52604160045260245ffd5b6200067c8262000634565b810181811067ffffffffffffffff821117156200069e576200069d62000644565b5b80604052505050565b5f620006b2620005ba565b9050620006c0828262000671565b919050565b5f67ffffffffffffffff821115620006e257620006e162000644565b5b620006ed8262000634565b9050602081019050919050565b828183375f83830152505050565b5f6200071e6200071884620006c5565b620006a7565b9050828152602081018484840111156200073d576200073c62000630565b5b6200074a848285620006fa565b509392505050565b5f82601f8301126200076957620007686200062c565b5b81356200077b84826020860162000708565b91505092915050565b5f805f606084860312156200079e576200079d620005c3565b5b5f620007ad8682870162000616565b935050602084013567ffffffffffffffff811115620007d157620007d0620005c7565b5b620007df8682870162000752565b925050604084013567ffffffffffffffff811115620008035762000802620005c7565b5b620008118682870162000752565b9150509250925092565b6200082681620005ea565b82525050565b5f602082019050620008415f8301846200081b565b92915050565b5f602082840312156200085f576200085e620005c3565b5b5f6200086e8482850162000616565b91505092915050565b5f819050919050565b6200088b8162000877565b811462000896575f80fd5b50565b5f81359050620008a98162000880565b92915050565b5f805f8060808587031215620008ca57620008c9620005c3565b5b5f620008d98782880162000616565b9450506020620008ec8782880162000616565b9350506040620008ff8782880162000899565b925050606085013567ffffffffffffffff811115620009235762000922620005c7565b5b620009318782880162000752565b91505092959194509250565b620009488162000877565b82525050565b5f602082019050620009635f8301846200093d565b92915050565b5f82825260208201905092915050565b7f436f6c6c656374696f6e20616c72656164792065786973747320666f722061725f8201527f746973616e000000000000000000000000000000000000000000000000000000602082015250565b5f620009d560258362000969565b9150620009e28262000979565b604082019050919050565b5f6020820190508181035f83015262000a0681620009c7565b9050919050565b5f81519050919050565b5f5b8381101562000a3657808201518184015260208101905062000a19565b5f8484015250505050565b5f62000a4d8262000a0d565b62000a59818562000969565b935062000a6b81856020860162000a17565b62000a768162000634565b840191505092915050565b5f60808201905062000a965f8301876200081b565b818103602083015262000aaa818662000a41565b9050818103604083015262000ac0818562000a41565b905062000ad160608301846200081b565b95945050505050565b5f60608201905062000aef5f8301866200081b565b62000afe60208301856200093d565b818103604083015262000b12818462000a41565b9050949350505050565b5f8151905062000b2c8162000880565b92915050565b5f6020828403121562000b4a5762000b49620005c3565b5b5f62000b598482850162000b1c565b91505092915050565b5f6020820190508181035f83015262000b7c818462000a41565b905092915050565b7f416d617a6f6e4941204172746973616e20436f6c6c656374696f6e00000000005f82015250565b5f62000bba601b8362000969565b915062000bc78262000b84565b602082019050919050565b7f414d5a41525400000000000000000000000000000000000000000000000000005f82015250565b5f62000c0860068362000969565b915062000c158262000bd2565b602082019050919050565b5f60808201905062000c355f8301856200081b565b818103602083015262000c488162000bac565b9050818103604083015262000c5d8162000bfa565b905062000c6e60608301846200081b565b939250505056fe60a060405234801562000010575f80fd5b5060405162002dd438038062002dd48339818101604052810190620000369190620003ca565b808383815f9081620000499190620006ae565b5080600190816200005b9190620006ae565b5050505f73ffffffffffffffffffffffffffffffffffffffff168173ffffffffffffffffffffffffffffffffffffffff1603620000d1575f6040517f1e4fbdf7000000000000000000000000000000000000000000000000000000008152600401620000c89190620007a3565b60405180910390fd5b620000e2816200012160201b60201c565b508373ffffffffffffffffffffffffffffffffffffffff1660808173ffffffffffffffffffffffffffffffffffffffff168152505050505050620007be565b5f60075f9054906101000a900473ffffffffffffffffffffffffffffffffffffffff1690508160075f6101000a81548173ffffffffffffffffffffffffffffffffffffffff021916908373ffffffffffffffffffffffffffffffffffffffff1602179055508173ffffffffffffffffffffffffffffffffffffffff168173ffffffffffffffffffffffffffffffffffffffff167f8be0079c531659141344cd1fd0a4f28419497f9722a3daafe3b4186f6b6457e060405160405180910390a35050565b5f604051905090565b5f80fd5b5f80fd5b5f73ffffffffffffffffffffffffffffffffffffffff82169050919050565b5f6200022082620001f5565b9050919050565b620002328162000214565b81146200023d575f80fd5b50565b5f81519050620002508162000227565b92915050565b5f80fd5b5f80fd5b5f601f19601f8301169050919050565b7f4e487b71000000000000000000000000000000000000000000000000000000005f52604160045260245ffd5b620002a6826200025e565b810181811067ffffffffffffffff82111715620002c857620002c76200026e565b5b80604052505050565b5f620002dc620001e4565b9050620002ea82826200029b565b919050565b5f67ffffffffffffffff8211156200030c576200030b6200026e565b5b62000317826200025e565b9050602081019050919050565b5f5b838110156200034357808201518184015260208101905062000326565b5f8484015250505050565b5f620003646200035e84620002ef565b620002d1565b9050828152602081018484840111156200038357620003826200025a565b5b6200039084828562000324565b509392505050565b5f82601f830112620003af57620003ae62000256565b5b8151620003c18482602086016200034e565b91505092915050565b5f805f8060808587031215620003e557620003e4620001ed565b5b5f620003f48782880162000240565b945050602085015167ffffffffffffffff811115620004185762000417620001f1565b5b620004268782880162000398565b935050604085015167ffffffffffffffff8111156200044a5762000449620001f1565b5b620004588782880162000398565b92505060606200046b8782880162000240565b91505092959194509250565b5f81519050919050565b7f4e487b71000000000000000000000000000000000000000000000000000000005f52602260045260245ffd5b5f6002820490506001821680620004c657607f821691505b602082108103620004dc57620004db62000481565b5b50919050565b5f819050815f5260205f209050919050565b5f6020601f8301049050919050565b5f82821b905092915050565b5f60088302620005407fffffffffffffffffffffffffffffffffffffffffffffffffffffffffffffffff8262000503565b6200054c868362000503565b95508019841693508086168417925050509392505050565b5f819050919050565b5f819050919050565b5f62000596620005906200058a8462000564565b6200056d565b62000564565b9050919050565b5f819050919050565b620005b18362000576565b620005c9620005c0826200059d565b8484546200050f565b825550505050565b5f90565b620005df620005d1565b620005ec818484620005a6565b505050565b5b818110156200061357620006075f82620005d5565b600181019050620005f2565b5050565b601f82111562000662576200062c81620004e2565b6200063784620004f4565b8101602085101562000647578190505b6200065f6200065685620004f4565b830182620005f1565b50505b505050565b5f82821c905092915050565b5f620006845f198460080262000667565b1980831691505092915050565b5f6200069e838362000673565b9150826002028217905092915050565b620006b98262000477565b67ffffffffffffffff811115620006d557620006d46200026e565b5b620006e18254620004ae565b620006ee82828562000617565b5f60209050601f83116001811462000724575f84156200070f578287015190505b6200071b858262000691565b8655506200078a565b601f1984166200073486620004e2565b5f5b828110156200075d5784890151825560018201915060208501945060208101905062000736565b868310156200077d578489015162000779601f89168262000673565b8355505b6001600288020188555050505b505050505050565b6200079d8162000214565b82525050565b5f602082019050620007b85f83018462000792565b92915050565b6080516125fd620007d75f395f6104b401526125fd5ff3fe608060405234801561000f575f80fd5b5060043610610114575f3560e01c806370a08231116100a0578063a22cb4651161006f578063a22cb465146102de578063b88d4fde146102fa578063c87b56dd14610316578063e985e9c514610346578063f2fde38b1461037657610114565b806370a0823114610268578063715018a6146102985780638da5cb5b146102a257806395d89b41146102c057610114565b80630bedc6b1116100e75780630bedc6b1146101b25780631e576912146101d057806323b872dd1461020057806342842e0e1461021c5780636352211e1461023857610114565b806301ffc9a71461011857806306fdde0314610148578063081812fc14610166578063095ea7b314610196575b5f80fd5b610132600480360381019061012d9190611b18565b610392565b60405161013f9190611b5d565b60405180910390f35b6101506103f2565b60405161015d9190611c00565b60405180910390f35b610180600480360381019061017b9190611c53565b610481565b60405161018d9190611cbd565b60405180910390f35b6101b060048036038101906101ab9190611d00565b61049c565b005b6101ba6104b2565b6040516101c79190611cbd565b60405180910390f35b6101ea60048036038101906101e59190611e6a565b6104d6565b6040516101f79190611ee5565b60405180910390f35b61021a60048036038101906102159190611efe565b6104fd565b005b61023660048036038101906102319190611efe565b6105fc565b005b610252600480360381019061024d9190611c53565b61061b565b60405161025f9190611cbd565b60405180910390f35b610282600480360381019061027d9190611f4e565b61062c565b60405161028f9190611ee5565b60405180910390f35b6102a06106e2565b005b6102aa6106f5565b6040516102b79190611cbd565b60405180910390f35b6102c861071d565b6040516102d59190611c00565b60405180910390f35b6102f860048036038101906102f39190611fa3565b6107ad565b005b610314600480360381019061030f919061207f565b6107c3565b005b610330600480360381019061032b9190611c53565b6107e8565b60405161033d9190611c00565b60405180910390f35b610360600480360381019061035b91906120ff565b610864565b60405161036d9190611b5d565b60405180910390f35b610390600480360381019061038b9190611f4e565b6108f2565b005b5f634906490660e01b7bffffffffffffffffffffffffffffffffffffffffffffffffffffffff1916827bffffffffffffffffffffffffffffffffffffffffffffffffffffffff191614806103eb57506103ea82610976565b5b9050919050565b60605f80546104009061216a565b80601f016020809104026020016040519081016040528092919081815260200182805461042c9061216a565b80156104775780601f1061044e57610100808354040283529160200191610477565b820191905f5260205f20905b81548152906001019060200180831161045a57829003601f168201915b5050505050905090565b5f61048b82610a57565b5061049582610add565b9050919050565b6104ae82826104a9610b16565b610b1d565b5050565b7f000000000000000000000000000000000000000000000000000000000000000081565b5f6104df610b2f565b6104e98484610bb6565b6104f38383610bd3565b8290509392505050565b5f73ffffffffffffffffffffffffffffffffffffffff168273ffffffffffffffffffffffffffffffffffffffff160361056d575f6040517f64a0ae920000000000000000000000000000000000000000000000000000000081526004016105649190611cbd565b60405180910390fd5b5f610580838361057b610b16565b610c2d565b90508373ffffffffffffffffffffffffffffffffffffffff168173ffffffffffffffffffffffffffffffffffffffff16146105f6578382826040517f64283d7b0000000000000000000000000000000000000000000000000000000081526004016105ed9392919061219a565b60405180910390fd5b50505050565b61061683838360405180602001604052805f8152506107c3565b505050565b5f61062582610a57565b9050919050565b5f8073ffffffffffffffffffffffffffffffffffffffff168273ffffffffffffffffffffffffffffffffffffffff160361069d575f6040517f89c62b640000000000000000000000000000000000000000000000000000000081526004016106949190611cbd565b60405180910390fd5b60035f8373ffffffffffffffffffffffffffffffffffffffff1673ffffffffffffffffffffffffffffffffffffffff1681526020019081526020015f20549050919050565b6106ea610b2f565b6106f35f610e38565b565b5f60075f9054906101000a900473ffffffffffffffffffffffffffffffffffffffff16905090565b60606001805461072c9061216a565b80601f01602080910402602001604051908101604052809291908181526020018280546107589061216a565b80156107a35780601f1061077a576101008083540402835291602001916107a3565b820191905f5260205f20905b81548152906001019060200180831161078657829003601f168201915b5050505050905090565b6107bf6107b8610b16565b8383610efb565b5050565b6107ce8484846104fd565b6107e26107d9610b16565b858585856110d4565b50505050565b60606107f382610a57565b505f6107fd611280565b90505f61080984611296565b90505f82510361081d57809250505061085f565b5f81511115610851578181604051602001610839929190612209565b6040516020818303038152906040529250505061085f565b61085a84611337565b925050505b919050565b5f60055f8473ffffffffffffffffffffffffffffffffffffffff1673ffffffffffffffffffffffffffffffffffffffff1681526020019081526020015f205f8373ffffffffffffffffffffffffffffffffffffffff1673ffffffffffffffffffffffffffffffffffffffff1681526020019081526020015f205f9054906101000a900460ff16905092915050565b6108fa610b2f565b5f73ffffffffffffffffffffffffffffffffffffffff168173ffffffffffffffffffffffffffffffffffffffff160361096a575f6040517f1e4fbdf70000000000000000000000000000000000000000000000000000000081526004016109619190611cbd565b60405180910390fd5b61097381610e38565b50565b5f7f80ac58cd000000000000000000000000000000000000000000000000000000007bffffffffffffffffffffffffffffffffffffffffffffffffffffffff1916827bffffffffffffffffffffffffffffffffffffffffffffffffffffffff19161480610a4057507f5b5e139f000000000000000000000000000000000000000000000000000000007bffffffffffffffffffffffffffffffffffffffffffffffffffffffff1916827bffffffffffffffffffffffffffffffffffffffffffffffffffffffff1916145b80610a505750610a4f8261139d565b5b9050919050565b5f80610a6283611406565b90505f73ffffffffffffffffffffffffffffffffffffffff168173ffffffffffffffffffffffffffffffffffffffff1603610ad457826040517f7e273289000000000000000000000000000000000000000000000000000000008152600401610acb9190611ee5565b60405180910390fd5b80915050919050565b5f60045f8381526020019081526020015f205f9054906101000a900473ffffffffffffffffffffffffffffffffffffffff169050919050565b5f33905090565b610b2a838383600161143f565b505050565b610b37610b16565b73ffffffffffffffffffffffffffffffffffffffff16610b556106f5565b73ffffffffffffffffffffffffffffffffffffffff1614610bb457610b78610b16565b6040517f118cdaa7000000000000000000000000000000000000000000000000000000008152600401610bab9190611cbd565b60405180910390fd5b565b610bcf828260405180602001604052805f8152506115fe565b5050565b8060065f8481526020019081526020015f209081610bf191906123c9565b507ff8e1a15aba9398e019f0b49df1a4fde98ee17ae345cb5f6b5e2c27f5033e8ce782604051610c219190611ee5565b60405180910390a15050565b5f80610c3884611406565b90505f73ffffffffffffffffffffffffffffffffffffffff168373ffffffffffffffffffffffffffffffffffffffff1614610c7957610c78818486611621565b5b5f73ffffffffffffffffffffffffffffffffffffffff168173ffffffffffffffffffffffffffffffffffffffff1614610d0457610cb85f855f8061143f565b600160035f8373ffffffffffffffffffffffffffffffffffffffff1673ffffffffffffffffffffffffffffffffffffffff1681526020019081526020015f205f82825403925050819055505b5f73ffffffffffffffffffffffffffffffffffffffff168573ffffffffffffffffffffffffffffffffffffffff1614610d8357600160035f8773ffffffffffffffffffffffffffffffffffffffff1673ffffffffffffffffffffffffffffffffffffffff1681526020019081526020015f205f82825401925050819055505b8460025f8681526020019081526020015f205f6101000a81548173ffffffffffffffffffffffffffffffffffffffff021916908373ffffffffffffffffffffffffffffffffffffffff160217905550838573ffffffffffffffffffffffffffffffffffffffff168273ffffffffffffffffffffffffffffffffffffffff167fddf252ad1be2c89b69c2b068fc378daa952ba7f163c4a11628f55a4df523b3ef60405160405180910390a4809150509392505050565b5f60075f9054906101000a900473ffffffffffffffffffffffffffffffffffffffff1690508160075f6101000a81548173ffffffffffffffffffffffffffffffffffffffff021916908373ffffffffffffffffffffffffffffffffffffffff1602179055508173ffffffffffffffffffffffffffffffffffffffff168173ffffffffffffffffffffffffffffffffffffffff167f8be0079c531659141344cd1fd0a4f28419497f9722a3daafe3b4186f6b6457e060405160405180910390a35050565b5f73ffffffffffffffffffffffffffffffffffffffff168373ffffffffffffffffffffffffffffffffffffffff1603610f6b575f6040517fa9fbf51f000000000000000000000000000000000000000000000000000000008152600401610f629190611cbd565b60405180910390fd5b5f73ffffffffffffffffffffffffffffffffffffffff168273ffffffffffffffffffffffffffffffffffffffff1603610fdb57816040517f5b08ba18000000000000000000000000000000000000000000000000000000008152600401610fd29190611cbd565b60405180910390fd5b8060055f8573ffffffffffffffffffffffffffffffffffffffff1673ffffffffffffffffffffffffffffffffffffffff1681526020019081526020015f205f8473ffffffffffffffffffffffffffffffffffffffff1673ffffffffffffffffffffffffffffffffffffffff1681526020019081526020015f205f6101000a81548160ff0219169083151502179055508173ffffffffffffffffffffffffffffffffffffffff168373ffffffffffffffffffffffffffffffffffffffff167f17307eab39ab6107e8899845ad3d59bd9653f200f220920489ca2b5937696c31836040516110c79190611b5d565b60405180910390a3505050565b5f8373ffffffffffffffffffffffffffffffffffffffff163b1115611279578273ffffffffffffffffffffffffffffffffffffffff1663150b7a02868685856040518563ffffffff1660e01b815260040161113294939291906124ea565b6020604051808303815f875af192505050801561116d57506040513d601f19601f8201168201806040525081019061116a9190612548565b60015b6111ee573d805f811461119b576040519150601f19603f3d011682016040523d82523d5f602084013e6111a0565b606091505b505f8151036111e657836040517f64a0ae920000000000000000000000000000000000000000000000000000000081526004016111dd9190611cbd565b60405180910390fd5b805160208201fd5b63150b7a0260e01b7bffffffffffffffffffffffffffffffffffffffffffffffffffffffff1916817bffffffffffffffffffffffffffffffffffffffffffffffffffffffff19161461127757836040517f64a0ae9200000000000000000000000000000000000000000000000000000000815260040161126e9190611cbd565b60405180910390fd5b505b5050505050565b606060405180602001604052805f815250905090565b606060065f8381526020019081526020015f2080546112b49061216a565b80601f01602080910402602001604051908101604052809291908181526020018280546112e09061216a565b801561132b5780601f106113025761010080835404028352916020019161132b565b820191905f5260205f20905b81548152906001019060200180831161130e57829003601f168201915b50505050509050919050565b606061134282610a57565b505f61134c611280565b90505f81511161136a5760405180602001604052805f815250611395565b80611374846116e4565b604051602001611385929190612209565b6040516020818303038152906040525b915050919050565b5f7f01ffc9a7000000000000000000000000000000000000000000000000000000007bffffffffffffffffffffffffffffffffffffffffffffffffffffffff1916827bffffffffffffffffffffffffffffffffffffffffffffffffffffffff1916149050919050565b5f60025f8381526020019081526020015f205f9054906101000a900473ffffffffffffffffffffffffffffffffffffffff169050919050565b808061147757505f73ffffffffffffffffffffffffffffffffffffffff168273ffffffffffffffffffffffffffffffffffffffff1614155b156115a9575f61148684610a57565b90505f73ffffffffffffffffffffffffffffffffffffffff168373ffffffffffffffffffffffffffffffffffffffff16141580156114f057508273ffffffffffffffffffffffffffffffffffffffff168173ffffffffffffffffffffffffffffffffffffffff1614155b801561150357506115018184610864565b155b1561154557826040517fa9fbf51f00000000000000000000000000000000000000000000000000000000815260040161153c9190611cbd565b60405180910390fd5b81156115a757838573ffffffffffffffffffffffffffffffffffffffff168273ffffffffffffffffffffffffffffffffffffffff167f8c5be1e5ebec7d5bd14f71427d1e84f3dd0314c0f7b2291e5b200ac8c7c3b92560405160405180910390a45b505b8360045f8581526020019081526020015f205f6101000a81548173ffffffffffffffffffffffffffffffffffffffff021916908373ffffffffffffffffffffffffffffffffffffffff16021790555050505050565b61160883836117ae565b61161c611613610b16565b5f8585856110d4565b505050565b61162c8383836118a1565b6116df575f73ffffffffffffffffffffffffffffffffffffffff168373ffffffffffffffffffffffffffffffffffffffff16036116a057806040517f7e2732890000000000000000000000000000000000000000000000000000000081526004016116979190611ee5565b60405180910390fd5b81816040517f177e802f0000000000000000000000000000000000000000000000000000000081526004016116d6929190612573565b60405180910390fd5b505050565b60605f60016116f284611961565b0190505f8167ffffffffffffffff8111156117105761170f611d46565b5b6040519080825280601f01601f1916602001820160405280156117425781602001600182028036833780820191505090505b5090505f82602083010190505b6001156117a3578080600190039150507f3031323334353637383961626364656600000000000000000000000000000000600a86061a8153600a85816117985761179761259a565b5b0494505f850361174f575b819350505050919050565b5f73ffffffffffffffffffffffffffffffffffffffff168273ffffffffffffffffffffffffffffffffffffffff160361181e575f6040517f64a0ae920000000000000000000000000000000000000000000000000000000081526004016118159190611cbd565b60405180910390fd5b5f61182a83835f610c2d565b90505f73ffffffffffffffffffffffffffffffffffffffff168173ffffffffffffffffffffffffffffffffffffffff161461189c575f6040517f73c6ac6e0000000000000000000000000000000000000000000000000000000081526004016118939190611cbd565b60405180910390fd5b505050565b5f8073ffffffffffffffffffffffffffffffffffffffff168373ffffffffffffffffffffffffffffffffffffffff161415801561195857508273ffffffffffffffffffffffffffffffffffffffff168473ffffffffffffffffffffffffffffffffffffffff16148061191957506119188484610864565b5b8061195757508273ffffffffffffffffffffffffffffffffffffffff1661193f83610add565b73ffffffffffffffffffffffffffffffffffffffff16145b5b90509392505050565b5f805f90507a184f03e93ff9f4daa797ed6e38ed64bf6a1f01000000000000000083106119bd577a184f03e93ff9f4daa797ed6e38ed64bf6a1f01000000000000000083816119b3576119b261259a565b5b0492506040810190505b6d04ee2d6d415b85acef810000000083106119fa576d04ee2d6d415b85acef810000000083816119f0576119ef61259a565b5b0492506020810190505b662386f26fc100008310611a2957662386f26fc100008381611a1f57611a1e61259a565b5b0492506010810190505b6305f5e1008310611a52576305f5e1008381611a4857611a4761259a565b5b0492506008810190505b6127108310611a77576127108381611a6d57611a6c61259a565b5b0492506004810190505b60648310611a9a5760648381611a9057611a8f61259a565b5b0492506002810190505b600a8310611aa9576001810190505b80915050919050565b5f604051905090565b5f80fd5b5f80fd5b5f7fffffffff0000000000000000000000000000000000000000000000000000000082169050919050565b611af781611ac3565b8114611b01575f80fd5b50565b5f81359050611b1281611aee565b92915050565b5f60208284031215611b2d57611b2c611abb565b5b5f611b3a84828501611b04565b91505092915050565b5f8115159050919050565b611b5781611b43565b82525050565b5f602082019050611b705f830184611b4e565b92915050565b5f81519050919050565b5f82825260208201905092915050565b5f5b83811015611bad578082015181840152602081019050611b92565b5f8484015250505050565b5f601f19601f8301169050919050565b5f611bd282611b76565b611bdc8185611b80565b9350611bec818560208601611b90565b611bf581611bb8565b840191505092915050565b5f6020820190508181035f830152611c188184611bc8565b905092915050565b5f819050919050565b611c3281611c20565b8114611c3c575f80fd5b50565b5f81359050611c4d81611c29565b92915050565b5f60208284031215611c6857611c67611abb565b5b5f611c7584828501611c3f565b91505092915050565b5f73ffffffffffffffffffffffffffffffffffffffff82169050919050565b5f611ca782611c7e565b9050919050565b611cb781611c9d565b82525050565b5f602082019050611cd05f830184611cae565b92915050565b611cdf81611c9d565b8114611ce9575f80fd5b50565b5f81359050611cfa81611cd6565b92915050565b5f8060408385031215611d1657611d15611abb565b5b5f611d2385828601611cec565b9250506020611d3485828601611c3f565b9150509250929050565b5f80fd5b5f80fd5b7f4e487b71000000000000000000000000000000000000000000000000000000005f52604160045260245ffd5b611d7c82611bb8565b810181811067ffffffffffffffff82111715611d9b57611d9a611d46565b5b80604052505050565b5f611dad611ab2565b9050611db98282611d73565b919050565b5f67ffffffffffffffff821115611dd857611dd7611d46565b5b611de182611bb8565b9050602081019050919050565b828183375f83830152505050565b5f611e0e611e0984611dbe565b611da4565b905082815260208101848484011115611e2a57611e29611d42565b5b611e35848285611dee565b509392505050565b5f82601f830112611e5157611e50611d3e565b5b8135611e61848260208601611dfc565b91505092915050565b5f805f60608486031215611e8157611e80611abb565b5b5f611e8e86828701611cec565b9350506020611e9f86828701611c3f565b925050604084013567ffffffffffffffff811115611ec057611ebf611abf565b5b611ecc86828701611e3d565b9150509250925092565b611edf81611c20565b82525050565b5f602082019050611ef85f830184611ed6565b92915050565b5f805f60608486031215611f1557611f14611abb565b5b5f611f2286828701611cec565b9350506020611f3386828701611cec565b9250506040611f4486828701611c3f565b9150509250925092565b5f60208284031215611f6357611f62611abb565b5b5f611f7084828501611cec565b91505092915050565b611f8281611b43565b8114611f8c575f80fd5b50565b5f81359050611f9d81611f79565b92915050565b5f8060408385031215611fb957611fb8611abb565b5b5f611fc685828601611cec565b9250506020611fd785828601611f8f565b9150509250929050565b5f67ffffffffffffffff821115611ffb57611ffa611d46565b5b61200482611bb8565b9050602081019050919050565b5f61202361201e84611fe1565b611da4565b90508281526020810184848401111561203f5761203e611d42565b5b61204a848285611dee565b509392505050565b5f82601f83011261206657612065611d3e565b5b8135612076848260208601612011565b91505092915050565b5f805f806080858703121561209757612096611abb565b5b5f6120a487828801611cec565b94505060206120b587828801611cec565b93505060406120c687828801611c3f565b925050606085013567ffffffffffffffff8111156120e7576120e6611abf565b5b6120f387828801612052565b91505092959194509250565b5f806040838503121561211557612114611abb565b5b5f61212285828601611cec565b925050602061213385828601611cec565b9150509250929050565b7f4e487b71000000000000000000000000000000000000000000000000000000005f52602260045260245ffd5b5f600282049050600182168061218157607f821691505b6020821081036121945761219361213d565b5b50919050565b5f6060820190506121ad5f830186611cae565b6121ba6020830185611ed6565b6121c76040830184611cae565b949350505050565b5f81905092915050565b5f6121e382611b76565b6121ed81856121cf565b93506121fd818560208601611b90565b80840191505092915050565b5f61221482856121d9565b915061222082846121d9565b91508190509392505050565b5f819050815f5260205f209050919050565b5f6020601f8301049050919050565b5f82821b905092915050565b5f600883026122887fffffffffffffffffffffffffffffffffffffffffffffffffffffffffffffffff8261224d565b612292868361224d565b95508019841693508086168417925050509392505050565b5f819050919050565b5f6122cd6122c86122c384611c20565b6122aa565b611c20565b9050919050565b5f819050919050565b6122e6836122b3565b6122fa6122f2826122d4565b848454612259565b825550505050565b5f90565b61230e612302565b6123198184846122dd565b505050565b5b8181101561233c576123315f82612306565b60018101905061231f565b5050565b601f821115612381576123528161222c565b61235b8461223e565b8101602085101561236a578190505b61237e6123768561223e565b83018261231e565b50505b505050565b5f82821c905092915050565b5f6123a15f1984600802612386565b1980831691505092915050565b5f6123b98383612392565b9150826002028217905092915050565b6123d282611b76565b67ffffffffffffffff8111156123eb576123ea611d46565b5b6123f5825461216a565b612400828285612340565b5f60209050601f831160018114612431575f841561241f578287015190505b61242985826123ae565b865550612490565b601f19841661243f8661222c565b5f5b8281101561246657848901518255600182019150602085019450602081019050612441565b86831015612483578489015161247f601f891682612392565b8355505b6001600288020188555050505b505050505050565b5f81519050919050565b5f82825260208201905092915050565b5f6124bc82612498565b6124c681856124a2565b93506124d6818560208601611b90565b6124df81611bb8565b840191505092915050565b5f6080820190506124fd5f830187611cae565b61250a6020830186611cae565b6125176040830185611ed6565b818103606083015261252981846124b2565b905095945050505050565b5f8151905061254281611aee565b92915050565b5f6020828403121561255d5761255c611abb565b5b5f61256a84828501612534565b91505092915050565b5f6040820190506125865f830185611cae565b6125936020830184611ed6565b9392505050565b7f4e487b71000000000000000000000000000000000000000000000000000000005f52601260045260245ffdfea26469706673582212208764170039d50886f81b692625c2ea7d934691a99a4bdabe95e6ca3df40fe92c64736f6c63430008180033a26469706673582212201fcc604b2e46d8e327c1249860d618d79ebd14e2eb08cde6aa08d2ef4862ed1f64736f6c63430008180033",
  "linkReferences": {},
  "deployedLinkReferences": {}
}