{
  "_format": "hh-sol-artifact-1",
  "contractName": "GovernanceRegistry",
  "sourceName": "contracts/GovernanceRegistry.sol",
  "abi": [
    {
      "inputs": [],
      "stateMutability": "nonpayable",
      "type": "constructor"
    },
    {
      "anonymous": false,
      "inputs": [
        {
          "indexed": true,
          "internalType": "address",
          "name": "previousElder",
          "type": "address"
        },
        {
          "indexed": true,
          "internalType": "address",
          "name": "newElder",
          "type": "address"
        }
      ],
      "name": "EldershipTransferred",
      "type": "event"
    },
    {
      "anonymous": false,
      "inputs": [
        {
          "indexed": false,
          "internalType": "string",
          "name": "proposalId",
          "type": "string"
        },
        {
          "indexed": false,
          "internalType": "string",
          "name": "contentHash",
          "type": "string"
        },
        {
          "indexed": false,
          "internalType": "string",
          "name": "proposerUserId",
          "type": "string"
        },
        {
          "indexed": false,
          "internalType": "uint256",
          "name": "deadline",
          "type": "uint256"
        }
      ],
      "name": "ProposalCreated",
      "type": "event"
    },
    {
      "anonymous": false,
      "inputs": [
        {
          "indexed": false,
          "internalType": "string",
          "name": "proposalId",
          "type": "string"
        },
        {
          "indexed": false,
          "internalType": "bool",
          "name": "approved",
          "type": "bool"
        }
      ],
      "name": "ProposalFinalized",
      "type": "event"
    },
    {
      "anonymous": false,
      "inputs": [
        {
          "indexed": false,
          "internalType": "string",
          "name": "proposalId",
          "type": "string"
        },
        {
          "indexed": false,
          "internalType": "string",
          "name": "reason",
          "type": "string"
        }
      ],
      "name": "ProposalVetoed",
      "type": "event"
    },
    {
      "anonymous": false,
      "inputs": [
        {
          "indexed": true,
          "internalType": "address",
          "name": "member",
          "type": "address"
        },
        {
          "indexed": false,
          "internalType": "string",
          "name": "userId",
          "type": "string"
        },
        {
          "indexed": false,
          "internalType": "enum GovernanceRegistry.Role",
          "name": "role",
          "type": "uint8"
        }
      ],
      "name": "RoleAssigned",
      "type": "event"
    },
    {
      "anonymous": false,
      "inputs": [
        {
          "indexed": false,
          "internalType": "string",
          "name": "proposalId",
          "type": "string"
        },
        {
          "indexed": true,
          "internalType": "address",
          "name": "voter",
          "type": "address"
        },
        {
          "indexed": false,
          "internalType": "bool",
          "name": "inFavor",
          "type": "bool"
        },
        {
          "indexed": false,
          "internalType": "uint256",
          "name": "weight",
          "type": "uint256"
        }
      ],
      "name": "VoteCast",
      "type": "event"
    },
    {
      "inputs": [
        {
          "internalType": "address",
          "name": "_member",
          "type": "address"
        },
        {
          "internalType": "string",
          "name": "_userId",
          "type": "string"
        },
        {
          "internalType": "enum GovernanceRegistry.Role",
          "name": "_role",
          "type": "uint8"
        }
      ],
      "name": "assignRole",
      "outputs": [],
      "stateMutability": "nonpayable",
      "type": "function"
    },
    {
      "inputs": [
        {
          "internalType": "string",
          "name": "_proposalId",
          "type": "string"
        },
        {
          "internalType": "string",
          "name": "_contentHash",
          "type": "string"
        },
        {
          "internalType": "string",
          "name": "_proposerUserId",
          "type": "string"
        },
        {
          "internalType": "uint256",
          "name": "_deadline",
          "type": "uint256"
        }
      ],
      "name": "createProposal",
      "outputs": [],
      "stateMutability": "nonpayable",
      "type": "function"
    },
    {
      "inputs": [],
      "name": "elder",
      "outputs": [
        {
          "internalType": "address",
          "name": "",
          "type": "address"
        }
      ],
      "stateMutability": "view",
      "type": "function"
    },
    {
      "inputs": [
        {
          "internalType": "string",
          "name": "_proposalId",
          "type": "string"
        }
      ],
      "name": "finalizeProposal",
      "outputs": [],
      "stateMutability": "nonpayable",
      "type": "function"
    },
    {
      "inputs": [
        {
          "internalType": "string",
          "name": "_proposalId",
          "type": "string"
        }
      ],
      "name": "getProposal",
      "outputs": [
        {
          "internalType": "string",
          "name": "proposalId",
          "type": "string"
        },
        {
          "internalType": "string",
          "name": "contentHash",
          "type": "string"
        },
        {
          "internalType": "string",
          "name": "proposerUserId",
          "type": "string"
        },
        {
          "internalType": "uint256",
          "name": "deadline",
          "type": "uint256"
        },
        {
          "internalType": "uint256",
          "name": "votesFor",
          "type": "uint256"
        },
        {
          "internalType": "uint256",
          "name": "votesAgainst",
          "type": "uint256"
        },
        {
          "internalType": "bool",
          "name": "vetoed",
          "type": "bool"
        },
        {
          "internalType": "string",
          "name": "vetoReason",
          "type": "string"
        },
        {
          "internalType": "bool",
          "name": "finalized",
          "type": "bool"
        },
        {
          "internalType": "bool",
          "name": "exists",
          "type": "bool"
        }
      ],
      "stateMutability": "view",
      "type": "function"
    },
    {
      "inputs": [
        {
          "internalType": "address",
          "name": "_member",
          "type": "address"
        }
      ],
      "name": "getRole",
      "outputs": [
        {
          "internalType": "enum GovernanceRegistry.Role",
          "name": "",
          "type": "uint8"
        }
      ],
      "stateMutability": "view",
      "type": "function"
    },
    {
      "inputs": [
        {
          "internalType": "string",
          "name": "",
          "type": "string"
        },
        {
          "internalType": "address",
          "name": "",
          "type": "address"
        }
      ],
      "name": "hasVoted",
      "outputs": [
        {
          "internalType": "bool",
          "name": "",
          "type": "bool"
        }
      ],
      "stateMutability": "view",
      "type": "function"
    },
    {
      "inputs": [
        {
          "internalType": "string",
          "name": "",
          "type": "string"
        }
      ],
      "name": "proposals",
      "outputs": [
        {
          "internalType": "string",
          "name": "proposalId",
          "type": "string"
        },
        {
          "internalType": "string",
          "name": "contentHash",
          "type": "string"
        },
        {
          "internalType": "string",
          "name": "proposerUserId",
          "type": "string"
        },
        {
          "internalType": "uint256",
          "name": "deadline",
          "type": "uint256"
        },
        {
          "internalType": "uint256",
          "name": "votesFor",
          "type": "uint256"
        },
        {
          "internalType": "uint256",
          "name": "votesAgainst",
          "type": "uint256"
        },
        {
          "internalType": "bool",
          "name": "vetoed",
          "type": "bool"
        },
        {
          "internalType": "string",
          "name": "vetoReason",
          "type": "string"
        },
        {
          "internalType": "bool",
          "name": "finalized",
          "type": "bool"
        },
        {
          "internalType": "bool",
          "name": "exists",
          "type": "bool"
        }
      ],
      "stateMutability": "view",
      "type": "function"
    },
    {
      "inputs": [
        {
          "internalType": "address",
          "name": "",
          "type": "address"
        }
      ],
      "name": "roles",
      "outputs": [
        {
          "internalType": "enum GovernanceRegistry.Role",
          "name": "",
          "type": "uint8"
        }
      ],
      "stateMutability": "view",
      "type": "function"
    },
    {
      "inputs": [
        {
          "internalType": "address",
          "name": "_newElder",
          "type": "address"
        }
      ],
      "name": "transferEldership",
      "outputs": [],
      "stateMutability": "nonpayable",
      "type": "function"
    },
    {
      "inputs": [
        {
          "internalType": "address",
          "name": "",
          "type": "address"
        }
      ],
      "name": "userIds",
      "outputs": [
        {
          "internalType": "string",
          "name": "",
          "type": "string"
        }
      ],
      "stateMutability": "view",
      "type": "function"
    },
    {
      "inputs": [
        {
          "internalType": "string",
          "name": "_proposalId",
          "type": "string"
        },
        {
          "internalType": "string",
          "name": "_reason",
          "type": "string"
        }
      ],
      "name": "veto",
      "outputs": [],
      "stateMutability": "nonpayable",
      "type": "function"
    },
    {
      "inputs": [
        {
          "internalType": "string",
          "name": "_proposalId",
          "type": "string"
        },
        {
          "internalType": "address",
          "name": "_voter",
          "type": "address"
        },
        {
          "internalType": "bool",
          "name": "_inFavor",
          "type": "bool"
        }
      ],
      "name": "vote",
      "outputs": [],
      "stateMutability": "nonpayable",
      "type": "function"
    }
  ],
  "bytecode": "0x60806040523480156200001157600080fd5b50336000806101000a81548173ffffffffffffffffffffffffffffffffffffffff021916908373ffffffffffffffffffffffffffffffffffffffff1602179055506002600160003373ffffffffffffffffffffffffffffffffffffffff1673ffffffffffffffffffffffffffffffffffffffff16815260200190815260200160002060006101000a81548160ff02191690836002811115620000b857620000b762000198565b5b02179055506040518060400160405280600c81526020017f53595354454d5f454c4445520000000000000000000000000000000000000000815250600260003373ffffffffffffffffffffffffffffffffffffffff1673ffffffffffffffffffffffffffffffffffffffff168152602001908152602001600020908162000140919062000441565b503373ffffffffffffffffffffffffffffffffffffffff167f1b8f42edc9b7affbd109fc6a03d57fbec6495325facd626fac3dd8917a73e37560026040516200018a9190620005da565b60405180910390a26200060c565b7f4e487b7100000000000000000000000000000000000000000000000000000000600052602160045260246000fd5b600081519050919050565b7f4e487b7100000000000000000000000000000000000000000000000000000000600052604160045260246000fd5b7f4e487b7100000000000000000000000000000000000000000000000000000000600052602260045260246000fd5b600060028204905060018216806200024957607f821691505b6020821081036200025f576200025e62000201565b5b50919050565b60008190508160005260206000209050919050565b60006020601f8301049050919050565b600082821b905092915050565b600060088302620002c97fffffffffffffffffffffffffffffffffffffffffffffffffffffffffffffffff826200028a565b620002d586836200028a565b95508019841693508086168417925050509392505050565b6000819050919050565b6000819050919050565b6000620003226200031c6200031684620002ed565b620002f7565b620002ed565b9050919050565b6000819050919050565b6200033e8362000301565b620003566200034d8262000329565b84845462000297565b825550505050565b600090565b6200036d6200035e565b6200037a81848462000333565b505050565b5b81811015620003a2576200039660008262000363565b60018101905062000380565b5050565b601f821115620003f157620003bb8162000265565b620003c6846200027a565b81016020851015620003d6578190505b620003ee620003e5856200027a565b8301826200037f565b50505b505050565b600082821c905092915050565b60006200041660001984600802620003f6565b1980831691505092915050565b600062000431838362000403565b9150826002028217905092915050565b6200044c82620001c7565b67ffffffffffffffff811115620004685762000467620001d2565b5b62000474825462000230565b62000481828285620003a6565b600060209050601f831160018114620004b95760008415620004a4578287015190505b620004b0858262000423565b86555062000520565b601f198416620004c98662000265565b60005b82811015620004f357848901518255600182019150602085019450602081019050620004cc565b868310156200051357848901516200050f601f89168262000403565b8355505b6001600288020188555050505b505050505050565b600082825260208201905092915050565b7f53595354454d5f454c4445520000000000000000000000000000000000000000600082015250565b600062000571600c8362000528565b91506200057e8262000539565b602082019050919050565b600381106200059d576200059c62000198565b5b50565b6000819050620005b08262000589565b919050565b6000620005c282620005a0565b9050919050565b620005d481620005b5565b82525050565b60006040820190508181036000830152620005f58162000562565b9050620006066020830184620005c9565b92915050565b6134a2806200061c6000396000f3fe608060405234801561001057600080fd5b50600436106100cf5760003560e01c8063993746421161008c578063df725e3f11610066578063df725e3f1461023f578063e2e14c851461025b578063e4c5869a14610277578063ffa0d2a414610293576100cf565b806399374642146101c15780639af06cd9146101f1578063c2c55faa14610221576100cf565b806325d3a09d146100d45780632cf347ef1461010d5780634081db511461012957806344276733146101595780634c15676b146101895780638ed8c889146101a5575b600080fd5b6100ee60048036038101906100e99190611e1a565b6102cc565b6040516101049a99989796959493929190611f2b565b60405180910390f35b61012760048036038101906101229190612066565b6105fa565b005b610143600480360381019061013e91906120da565b610805565b6040516101509190612107565b60405180910390f35b610173600480360381019061016e91906120da565b6108a5565b60405161018091906121a0565b60405180910390f35b6101a3600480360381019061019e91906121e7565b6108fb565b005b6101bf60048036038101906101ba91906122dc565b610d4e565b005b6101db60048036038101906101d691906120da565b61124e565b6040516101e891906121a0565b60405180910390f35b61020b60048036038101906102069190612480565b61126e565b60405161021891906124dc565b60405180910390f35b6102296112b3565b6040516102369190612506565b60405180910390f35b61025960048036038101906102549190612521565b6112d7565b005b610275600480360381019061027091906120da565b6114f3565b005b610291600480360381019061028c9190611e1a565b6118dc565b005b6102ad60048036038101906102a891906125a2565b611af0565b6040516102c39a99989796959493929190611f2b565b60405180910390f35b60608060606000806000806060600080600060038d8d6040516102f092919061261b565b908152602001604051809103902090508060080160019054906101000a900460ff16610351576040517f08c379a0000000000000000000000000000000000000000000000000000000008152600401610348906126a6565b60405180910390fd5b8060000181600101826002018360030154846004015485600501548660060160009054906101000a900460ff16876007018860080160009054906101000a900460ff168960080160019054906101000a900460ff168980546103b2906126f5565b80601f01602080910402602001604051908101604052809291908181526020018280546103de906126f5565b801561042b5780601f106104005761010080835404028352916020019161042b565b820191906000526020600020905b81548152906001019060200180831161040e57829003601f168201915b5050505050995088805461043e906126f5565b80601f016020809104026020016040519081016040528092919081815260200182805461046a906126f5565b80156104b75780601f1061048c576101008083540402835291602001916104b7565b820191906000526020600020905b81548152906001019060200180831161049a57829003601f168201915b505050505098508780546104ca906126f5565b80601f01602080910402602001604051908101604052809291908181526020018280546104f6906126f5565b80156105435780601f1061051857610100808354040283529160200191610543565b820191906000526020600020905b81548152906001019060200180831161052657829003601f168201915b50505050509750828054610556906126f5565b80601f0160208091040260200160405190810160405280929190818152602001828054610582906126f5565b80156105cf5780601f106105a4576101008083540402835291602001916105cf565b820191906000526020600020905b8154815290600101906020018083116105b257829003601f168201915b505050505092509a509a509a509a509a509a509a509a509a509a50509295989b9194979a5092959850565b60008054906101000a900473ffffffffffffffffffffffffffffffffffffffff1673ffffffffffffffffffffffffffffffffffffffff163373ffffffffffffffffffffffffffffffffffffffff1614610688576040517f08c379a000000000000000000000000000000000000000000000000000000000815260040161067f90612798565b60405180910390fd5b600073ffffffffffffffffffffffffffffffffffffffff168473ffffffffffffffffffffffffffffffffffffffff16036106f7576040517f08c379a00000000000000000000000000000000000000000000000000000000081526004016106ee9061282a565b60405180910390fd5b80600160008673ffffffffffffffffffffffffffffffffffffffff1673ffffffffffffffffffffffffffffffffffffffff16815260200190815260200160002060006101000a81548160ff0219169083600281111561075957610758612129565b5b02179055508282600260008773ffffffffffffffffffffffffffffffffffffffff1673ffffffffffffffffffffffffffffffffffffffff16815260200190815260200160002091826107ac929190612a01565b508373ffffffffffffffffffffffffffffffffffffffff167f1b8f42edc9b7affbd109fc6a03d57fbec6495325facd626fac3dd8917a73e3758484846040516107f793929190612afe565b60405180910390a250505050565b60026020528060005260406000206000915090508054610824906126f5565b80601f0160208091040260200160405190810160405280929190818152602001828054610850906126f5565b801561089d5780601f106108725761010080835404028352916020019161089d565b820191906000526020600020905b81548152906001019060200180831161088057829003601f168201915b505050505081565b6000600160008373ffffffffffffffffffffffffffffffffffffffff1673ffffffffffffffffffffffffffffffffffffffff16815260200190815260200160002060009054906101000a900460ff169050919050565b6001600281111561090f5761090e612129565b5b600160003373ffffffffffffffffffffffffffffffffffffffff1673ffffffffffffffffffffffffffffffffffffffff16815260200190815260200160002060009054906101000a900460ff16600281111561096e5761096d612129565b5b14806109e9575060028081111561098857610987612129565b5b600160003373ffffffffffffffffffffffffffffffffffffffff1673ffffffffffffffffffffffffffffffffffffffff16815260200190815260200160002060009054906101000a900460ff1660028111156109e7576109e6612129565b5b145b610a28576040517f08c379a0000000000000000000000000000000000000000000000000000000008152600401610a1f90612ba2565b60405180910390fd5b60038787604051610a3a92919061261b565b908152602001604051809103902060080160019054906101000a900460ff1615610a99576040517f08c379a0000000000000000000000000000000000000000000000000000000008152600401610a9090612c34565b60405180910390fd5b428111610adb576040517f08c379a0000000000000000000000000000000000000000000000000000000008152600401610ad290612cc6565b60405180910390fd5b60405180610140016040528088888080601f016020809104026020016040519081016040528093929190818152602001838380828437600081840152601f19601f82011690508083019250505050505050815260200186868080601f016020809104026020016040519081016040528093929190818152602001838380828437600081840152601f19601f82011690508083019250505050505050815260200184848080601f016020809104026020016040519081016040528093929190818152602001838380828437600081840152601f19601f82011690508083019250505050505050815260200182815260200160008152602001600081526020016000151581526020016040518060200160405280600081525081526020016000151581526020016001151581525060038888604051610c1992919061261b565b90815260200160405180910390206000820151816000019081610c3c9190612ce6565b506020820151816001019081610c529190612ce6565b506040820151816002019081610c689190612ce6565b50606082015181600301556080820151816004015560a0820151816005015560c08201518160060160006101000a81548160ff02191690831515021790555060e0820151816007019081610cbc9190612ce6565b506101008201518160080160006101000a81548160ff0219169083151502179055506101208201518160080160016101000a81548160ff0219169083151502179055509050507f142cff0c5db6456d0522bcc45eeb613cc7760ea95440adc0ac1504ffda8cf88387878787878787604051610d3d9796959493929190612db8565b60405180910390a150505050505050565b600060038585604051610d6292919061261b565b908152602001604051809103902090508060080160019054906101000a900460ff16610dc3576040517f08c379a0000000000000000000000000000000000000000000000000000000008152600401610dba906126a6565b60405180910390fd5b8060030154421115610e0a576040517f08c379a0000000000000000000000000000000000000000000000000000000008152600401610e0190612e8a565b60405180910390fd5b8060060160009054906101000a900460ff1615610e5c576040517f08c379a0000000000000000000000000000000000000000000000000000000008152600401610e5390612f1c565b60405180910390fd5b8060080160009054906101000a900460ff1615610eae576040517f08c379a0000000000000000000000000000000000000000000000000000000008152600401610ea590612fae565b60405180910390fd5b8273ffffffffffffffffffffffffffffffffffffffff163373ffffffffffffffffffffffffffffffffffffffff161480610f33575060008054906101000a900473ffffffffffffffffffffffffffffffffffffffff1673ffffffffffffffffffffffffffffffffffffffff163373ffffffffffffffffffffffffffffffffffffffff16145b610f72576040517f08c379a0000000000000000000000000000000000000000000000000000000008152600401610f6990613040565b60405180910390fd5b6000600160008573ffffffffffffffffffffffffffffffffffffffff1673ffffffffffffffffffffffffffffffffffffffff16815260200190815260200160002060009054906101000a900460ff16905060016002811115610fd757610fd6612129565b5b816002811115610fea57610fe9612129565b5b1480611019575060028081111561100457611003612129565b5b81600281111561101757611016612129565b5b145b611058576040517f08c379a000000000000000000000000000000000000000000000000000000000815260040161104f906130d2565b60405180910390fd5b6004868660405161106a92919061261b565b908152602001604051809103902060008573ffffffffffffffffffffffffffffffffffffffff1673ffffffffffffffffffffffffffffffffffffffff16815260200190815260200160002060009054906101000a900460ff1615611103576040517f08c379a00000000000000000000000000000000000000000000000000000000081526004016110fa90613164565b60405180910390fd5b60006001905060028081111561111c5761111b612129565b5b82600281111561112f5761112e612129565b5b0361113957600390505b60016004888860405161114d92919061261b565b908152602001604051809103902060008773ffffffffffffffffffffffffffffffffffffffff1673ffffffffffffffffffffffffffffffffffffffff16815260200190815260200160002060006101000a81548160ff02191690831515021790555083156111d557808360040160008282546111c991906131b3565b925050819055506111f1565b808360050160008282546111e991906131b3565b925050819055505b8473ffffffffffffffffffffffffffffffffffffffff167f8f939c0e8da82099bc9be68995da582362fa8d3032227846326c305b0f2d2e378888878560405161123d94939291906131e7565b60405180910390a250505050505050565b60016020528060005260406000206000915054906101000a900460ff1681565b6004828051602081018201805184825260208301602085012081835280955050505050506020528060005260406000206000915091509054906101000a900460ff1681565b60008054906101000a900473ffffffffffffffffffffffffffffffffffffffff1681565b60008054906101000a900473ffffffffffffffffffffffffffffffffffffffff1673ffffffffffffffffffffffffffffffffffffffff163373ffffffffffffffffffffffffffffffffffffffff1614611365576040517f08c379a000000000000000000000000000000000000000000000000000000000815260040161135c90612798565b60405180910390fd5b60006003858560405161137992919061261b565b908152602001604051809103902090508060080160019054906101000a900460ff166113da576040517f08c379a00000000000000000000000000000000000000000000000000000000081526004016113d1906126a6565b60405180910390fd5b8060060160009054906101000a900460ff161561142c576040517f08c379a000000000000000000000000000000000000000000000000000000000815260040161142390613299565b60405180910390fd5b8060080160009054906101000a900460ff161561147e576040517f08c379a00000000000000000000000000000000000000000000000000000000081526004016114759061332b565b60405180910390fd5b60018160060160006101000a81548160ff02191690831515021790555082828260070191826114ae929190612a01565b507fe292f74531caa05b1b9e221ec84fcf7162b233980225f118498e336ab9caad39858585856040516114e4949392919061334b565b60405180910390a15050505050565b60008054906101000a900473ffffffffffffffffffffffffffffffffffffffff1673ffffffffffffffffffffffffffffffffffffffff163373ffffffffffffffffffffffffffffffffffffffff1614611581576040517f08c379a000000000000000000000000000000000000000000000000000000000815260040161157890612798565b60405180910390fd5b600073ffffffffffffffffffffffffffffffffffffffff168173ffffffffffffffffffffffffffffffffffffffff16036115f0576040517f08c379a00000000000000000000000000000000000000000000000000000000081526004016115e79061282a565b60405180910390fd5b60018060008060009054906101000a900473ffffffffffffffffffffffffffffffffffffffff1673ffffffffffffffffffffffffffffffffffffffff1673ffffffffffffffffffffffffffffffffffffffff16815260200190815260200160002060006101000a81548160ff0219169083600281111561167357611672612129565b5b021790555060008054906101000a900473ffffffffffffffffffffffffffffffffffffffff1673ffffffffffffffffffffffffffffffffffffffff167f1b8f42edc9b7affbd109fc6a03d57fbec6495325facd626fac3dd8917a73e375600260008060009054906101000a900473ffffffffffffffffffffffffffffffffffffffff1673ffffffffffffffffffffffffffffffffffffffff1673ffffffffffffffffffffffffffffffffffffffff168152602001908152602001600020600160405161174092919061340a565b60405180910390a2806000806101000a81548173ffffffffffffffffffffffffffffffffffffffff021916908373ffffffffffffffffffffffffffffffffffffffff1602179055506002600160008373ffffffffffffffffffffffffffffffffffffffff1673ffffffffffffffffffffffffffffffffffffffff16815260200190815260200160002060006101000a81548160ff021916908360028111156117eb576117ea612129565b5b02179055508073ffffffffffffffffffffffffffffffffffffffff163373ffffffffffffffffffffffffffffffffffffffff167f97c8585e4a067c7f703c47f8c81b944ae318745b9f9c72dd5450cd99b5bc5c6c60405160405180910390a38073ffffffffffffffffffffffffffffffffffffffff167f1b8f42edc9b7affbd109fc6a03d57fbec6495325facd626fac3dd8917a73e375600260008473ffffffffffffffffffffffffffffffffffffffff1673ffffffffffffffffffffffffffffffffffffffff16815260200190815260200160002060026040516118d192919061340a565b60405180910390a250565b60008054906101000a900473ffffffffffffffffffffffffffffffffffffffff1673ffffffffffffffffffffffffffffffffffffffff163373ffffffffffffffffffffffffffffffffffffffff161461196a576040517f08c379a000000000000000000000000000000000000000000000000000000000815260040161196190612798565b60405180910390fd5b60006003838360405161197e92919061261b565b908152602001604051809103902090508060080160019054906101000a900460ff166119df576040517f08c379a00000000000000000000000000000000000000000000000000000000081526004016119d6906126a6565b60405180910390fd5b8060060160009054906101000a900460ff1615611a31576040517f08c379a0000000000000000000000000000000000000000000000000000000008152600401611a2890612f1c565b60405180910390fd5b8060080160009054906101000a900460ff1615611a83576040517f08c379a0000000000000000000000000000000000000000000000000000000008152600401611a7a9061332b565b60405180910390fd5b60018160080160006101000a81548160ff0219169083151502179055506000816005015482600401541190507f02e0b4ba358513ad0b594703ae447c8bb0a707cec1100e5615ce4b9236b90fe3848483604051611ae29392919061343a565b60405180910390a150505050565b600381805160208101820180518482526020830160208501208183528095505050505050600091509050806000018054611b29906126f5565b80601f0160208091040260200160405190810160405280929190818152602001828054611b55906126f5565b8015611ba25780601f10611b7757610100808354040283529160200191611ba2565b820191906000526020600020905b815481529060010190602001808311611b8557829003601f168201915b505050505090806001018054611bb7906126f5565b80601f0160208091040260200160405190810160405280929190818152602001828054611be3906126f5565b8015611c305780601f10611c0557610100808354040283529160200191611c30565b820191906000526020600020905b815481529060010190602001808311611c1357829003601f168201915b505050505090806002018054611c45906126f5565b80601f0160208091040260200160405190810160405280929190818152602001828054611c71906126f5565b8015611cbe5780601f10611c9357610100808354040283529160200191611cbe565b820191906000526020600020905b815481529060010190602001808311611ca157829003601f168201915b5050505050908060030154908060040154908060050154908060060160009054906101000a900460ff1690806007018054611cf8906126f5565b80601f0160208091040260200160405190810160405280929190818152602001828054611d24906126f5565b8015611d715780601f10611d4657610100808354040283529160200191611d71565b820191906000526020600020905b815481529060010190602001808311611d5457829003601f168201915b5050505050908060080160009054906101000a900460ff16908060080160019054906101000a900460ff1690508a565b6000604051905090565b600080fd5b600080fd5b600080fd5b600080fd5b600080fd5b60008083601f840112611dda57611dd9611db5565b5b8235905067ffffffffffffffff811115611df757611df6611dba565b5b602083019150836001820283011115611e1357611e12611dbf565b5b9250929050565b60008060208385031215611e3157611e30611dab565b5b600083013567ffffffffffffffff811115611e4f57611e4e611db0565b5b611e5b85828601611dc4565b92509250509250929050565b600081519050919050565b600082825260208201905092915050565b60005b83811015611ea1578082015181840152602081019050611e86565b60008484015250505050565b6000601f19601f8301169050919050565b6000611ec982611e67565b611ed38185611e72565b9350611ee3818560208601611e83565b611eec81611ead565b840191505092915050565b6000819050919050565b611f0a81611ef7565b82525050565b60008115159050919050565b611f2581611f10565b82525050565b6000610140820190508181036000830152611f46818d611ebe565b90508181036020830152611f5a818c611ebe565b90508181036040830152611f6e818b611ebe565b9050611f7d606083018a611f01565b611f8a6080830189611f01565b611f9760a0830188611f01565b611fa460c0830187611f1c565b81810360e0830152611fb68186611ebe565b9050611fc6610100830185611f1c565b611fd4610120830184611f1c565b9b9a5050505050505050505050565b600073ffffffffffffffffffffffffffffffffffffffff82169050919050565b600061200e82611fe3565b9050919050565b61201e81612003565b811461202957600080fd5b50565b60008135905061203b81612015565b92915050565b6003811061204e57600080fd5b50565b60008135905061206081612041565b92915050565b600080600080606085870312156120805761207f611dab565b5b600061208e8782880161202c565b945050602085013567ffffffffffffffff8111156120af576120ae611db0565b5b6120bb87828801611dc4565b935093505060406120ce87828801612051565b91505092959194509250565b6000602082840312156120f0576120ef611dab565b5b60006120fe8482850161202c565b91505092915050565b600060208201905081810360008301526121218184611ebe565b905092915050565b7f4e487b7100000000000000000000000000000000000000000000000000000000600052602160045260246000fd5b6003811061216957612168612129565b5b50565b600081905061217a82612158565b919050565b600061218a8261216c565b9050919050565b61219a8161217f565b82525050565b60006020820190506121b56000830184612191565b92915050565b6121c481611ef7565b81146121cf57600080fd5b50565b6000813590506121e1816121bb565b92915050565b60008060008060008060006080888a03121561220657612205611dab565b5b600088013567ffffffffffffffff81111561222457612223611db0565b5b6122308a828b01611dc4565b9750975050602088013567ffffffffffffffff81111561225357612252611db0565b5b61225f8a828b01611dc4565b9550955050604088013567ffffffffffffffff81111561228257612281611db0565b5b61228e8a828b01611dc4565b935093505060606122a18a828b016121d2565b91505092959891949750929550565b6122b981611f10565b81146122c457600080fd5b50565b6000813590506122d6816122b0565b92915050565b600080600080606085870312156122f6576122f5611dab565b5b600085013567ffffffffffffffff81111561231457612313611db0565b5b61232087828801611dc4565b945094505060206123338782880161202c565b9250506040612344878288016122c7565b91505092959194509250565b600080fd5b7f4e487b7100000000000000000000000000000000000000000000000000000000600052604160045260246000fd5b61238d82611ead565b810181811067ffffffffffffffff821117156123ac576123ab612355565b5b80604052505050565b60006123bf611da1565b90506123cb8282612384565b919050565b600067ffffffffffffffff8211156123eb576123ea612355565b5b6123f482611ead565b9050602081019050919050565b82818337600083830152505050565b600061242361241e846123d0565b6123b5565b90508281526020810184848401111561243f5761243e612350565b5b61244a848285612401565b509392505050565b600082601f83011261246757612466611db5565b5b8135612477848260208601612410565b91505092915050565b6000806040838503121561249757612496611dab565b5b600083013567ffffffffffffffff8111156124b5576124b4611db0565b5b6124c185828601612452565b92505060206124d28582860161202c565b9150509250929050565b60006020820190506124f16000830184611f1c565b92915050565b61250081612003565b82525050565b600060208201905061251b60008301846124f7565b92915050565b6000806000806040858703121561253b5761253a611dab565b5b600085013567ffffffffffffffff81111561255957612558611db0565b5b61256587828801611dc4565b9450945050602085013567ffffffffffffffff81111561258857612587611db0565b5b61259487828801611dc4565b925092505092959194509250565b6000602082840312156125b8576125b7611dab565b5b600082013567ffffffffffffffff8111156125d6576125d5611db0565b5b6125e284828501612452565b91505092915050565b600081905092915050565b600061260283856125eb565b935061260f838584612401565b82840190509392505050565b60006126288284866125f6565b91508190509392505050565b7f476f7665726e616e636552656769737472793a2070726f706f73616c20646f6560008201527f73206e6f74206578697374000000000000000000000000000000000000000000602082015250565b6000612690602b83611e72565b915061269b82612634565b604082019050919050565b600060208201905081810360008301526126bf81612683565b9050919050565b7f4e487b7100000000000000000000000000000000000000000000000000000000600052602260045260246000fd5b6000600282049050600182168061270d57607f821691505b6020821081036127205761271f6126c6565b5b50919050565b7f476f7665726e616e636552656769737472793a2063616c6c6572206973206e6f60008201527f742074686520456c646572000000000000000000000000000000000000000000602082015250565b6000612782602b83611e72565b915061278d82612726565b604082019050919050565b600060208201905081810360008301526127b181612775565b9050919050565b7f476f7665726e616e636552656769737472793a20696e76616c6964206164647260008201527f6573730000000000000000000000000000000000000000000000000000000000602082015250565b6000612814602383611e72565b915061281f826127b8565b604082019050919050565b6000602082019050818103600083015261284381612807565b9050919050565b600082905092915050565b60008190508160005260206000209050919050565b60006020601f8301049050919050565b600082821b905092915050565b6000600883026128b77fffffffffffffffffffffffffffffffffffffffffffffffffffffffffffffffff8261287a565b6128c1868361287a565b95508019841693508086168417925050509392505050565b6000819050919050565b60006128fe6128f96128f484611ef7565b6128d9565b611ef7565b9050919050565b6000819050919050565b612918836128e3565b61292c61292482612905565b848454612887565b825550505050565b600090565b612941612934565b61294c81848461290f565b505050565b5b8181101561297057612965600082612939565b600181019050612952565b5050565b601f8211156129b55761298681612855565b61298f8461286a565b8101602085101561299e578190505b6129b26129aa8561286a565b830182612951565b50505b505050565b600082821c905092915050565b60006129d8600019846008026129ba565b1980831691505092915050565b60006129f183836129c7565b9150826002028217905092915050565b612a0b838361284a565b67ffffffffffffffff811115612a2457612a23612355565b5b612a2e82546126f5565b612a39828285612974565b6000601f831160018114612a685760008415612a56578287013590505b612a6085826129e5565b865550612ac8565b601f198416612a7686612855565b60005b82811015612a9e57848901358255600182019150602085019450602081019050612a79565b86831015612abb5784890135612ab7601f8916826129c7565b8355505b6001600288020188555050505b50505050505050565b6000612add8385611e72565b9350612aea838584612401565b612af383611ead565b840190509392505050565b60006040820190508181036000830152612b19818587612ad1565b9050612b286020830184612191565b949350505050565b7f476f7665726e616e636552656769737472793a2063616c6c6572206973206e6f60008201527f742061206d656d626572206f7220456c64657200000000000000000000000000602082015250565b6000612b8c603383611e72565b9150612b9782612b30565b604082019050919050565b60006020820190508181036000830152612bbb81612b7f565b9050919050565b7f476f7665726e616e636552656769737472793a2070726f706f73616c20616c7260008201527f6561647920657869737473000000000000000000000000000000000000000000602082015250565b6000612c1e602b83611e72565b9150612c2982612bc2565b604082019050919050565b60006020820190508181036000830152612c4d81612c11565b9050919050565b7f476f7665726e616e636552656769737472793a20646561646c696e65206d757360008201527f7420626520696e20746865206675747572650000000000000000000000000000602082015250565b6000612cb0603283611e72565b9150612cbb82612c54565b604082019050919050565b60006020820190508181036000830152612cdf81612ca3565b9050919050565b612cef82611e67565b67ffffffffffffffff811115612d0857612d07612355565b5b612d1282546126f5565b612d1d828285612974565b600060209050601f831160018114612d505760008415612d3e578287015190505b612d4885826129e5565b865550612db0565b601f198416612d5e86612855565b60005b82811015612d8657848901518255600182019150602085019450602081019050612d61565b86831015612da35784890151612d9f601f8916826129c7565b8355505b6001600288020188555050505b505050505050565b60006080820190508181036000830152612dd381898b612ad1565b90508181036020830152612de8818789612ad1565b90508181036040830152612dfd818587612ad1565b9050612e0c6060830184611f01565b98975050505050505050565b7f476f7665726e616e636552656769737472793a20766f74696e6720706572696f60008201527f642068617320656e646564000000000000000000000000000000000000000000602082015250565b6000612e74602b83611e72565b9150612e7f82612e18565b604082019050919050565b60006020820190508181036000830152612ea381612e67565b9050919050565b7f476f7665726e616e636552656769737472793a2070726f706f73616c2068617360008201527f206265656e207665746f65640000000000000000000000000000000000000000602082015250565b6000612f06602c83611e72565b9150612f1182612eaa565b604082019050919050565b60006020820190508181036000830152612f3581612ef9565b9050919050565b7f476f7665726e616e636552656769737472793a2070726f706f73616c2069732060008201527f616c72656164792066696e616c697a6564000000000000000000000000000000602082015250565b6000612f98603183611e72565b9150612fa382612f3c565b604082019050919050565b60006020820190508181036000830152612fc781612f8b565b9050919050565b7f476f7665726e616e636552656769737472793a206e6f7420617574686f72697a60008201527f656420746f20766f746520666f72207468697320616464726573730000000000602082015250565b600061302a603b83611e72565b915061303582612fce565b604082019050919050565b600060208201905081810360008301526130598161301d565b9050919050565b7f476f7665726e616e636552656769737472793a20766f746572206973206e6f7460008201527f2061206d656d626572206f7220456c6465720000000000000000000000000000602082015250565b60006130bc603283611e72565b91506130c782613060565b604082019050919050565b600060208201905081810360008301526130eb816130af565b9050919050565b7f476f7665726e616e636552656769737472793a20766f7465722068617320616c60008201527f726561647920766f746564000000000000000000000000000000000000000000602082015250565b600061314e602b83611e72565b9150613159826130f2565b604082019050919050565b6000602082019050818103600083015261317d81613141565b9050919050565b7f4e487b7100000000000000000000000000000000000000000000000000000000600052601160045260246000fd5b60006131be82611ef7565b91506131c983611ef7565b92508282019050808211156131e1576131e0613184565b5b92915050565b60006060820190508181036000830152613202818688612ad1565b90506132116020830185611f1c565b61321e6040830184611f01565b95945050505050565b7f476f7665726e616e636552656769737472793a2070726f706f73616c20616c7260008201527f65616479207665746f6564000000000000000000000000000000000000000000602082015250565b6000613283602b83611e72565b915061328e82613227565b604082019050919050565b600060208201905081810360008301526132b281613276565b9050919050565b7f476f7665726e616e636552656769737472793a2070726f706f73616c20616c7260008201527f656164792066696e616c697a6564000000000000000000000000000000000000602082015250565b6000613315602e83611e72565b9150613320826132b9565b604082019050919050565b6000602082019050818103600083015261334481613308565b9050919050565b60006040820190508181036000830152613366818688612ad1565b9050818103602083015261337b818486612ad1565b905095945050505050565b60008154613393816126f5565b61339d8186611e72565b945060018216600081146133b857600181146133ce57613401565b60ff198316865281151560200286019350613401565b6133d785612855565b60005b838110156133f9578154818901526001820191506020810190506133da565b808801955050505b50505092915050565b600060408201905081810360008301526134248185613386565b90506134336020830184612191565b9392505050565b60006040820190508181036000830152613455818587612ad1565b90506134646020830184611f1c565b94935050505056fea264697066735822122049a454d2395fe1de7b3efdfaec34c76152659741c2f4ee13d79b97094746843664736f6c63430008140033",
  "linkReferences": {},
  "deployedLinkReferences": {}
}