{
  "_format": "hh-sol-artifact-1",
  "contractName": "GovernanceRegistry",
  "sourceName": "contracts/GovernanceRegistry.sol",
  "abi": [
    {
      "inputs": [],
      "stateMutability": "nonpayable",
      "type": "constructor"
    },
    {
      "anonymous": false,
      "inputs": [
        {
          "indexed": true,
          "internalType": "address",
          "name": "oldElder",
          "type": "address"
        },
        {
          "indexed": true,
          "internalType": "address",
          "name": "newElder",
          "type": "address"
        },
        {
          "indexed": false,
          "internalType": "uint256",
          "name": "timestamp",
          "type": "uint256"
        }
      ],
      "name": "EldershipTransferred",
      "type": "event"
    },
    {
      "anonymous": false,
      "inputs": [
        {
          "indexed": true,
          "internalType": "string",
          "name": "proposalId",
          "type": "string"
        },
        {
          "indexed": false,
          "internalType": "uint256",
          "name": "votesFor",
          "type": "uint256"
        },
        {
          "indexed": false,
          "internalType": "uint256",
          "name": "votesAgainst",
          "type": "uint256"
        },
        {
          "indexed": false,
          "internalType": "uint256",
          "name": "timestamp",
          "type": "uint256"
        }
      ],
      "name": "ProposalApproved",
      "type": "event"
    },
    {
      "anonymous": false,
      "inputs": [
        {
          "indexed": true,
          "internalType": "string",
          "name": "proposalId",
          "type": "string"
        },
        {
          "indexed": false,
          "internalType": "string",
          "name": "contentHash",
          "type": "string"
        },
        {
          "indexed": false,
          "internalType": "string",
          "name": "proposerUserId",
          "type": "string"
        },
        {
          "indexed": false,
          "internalType": "uint256",
          "name": "deadline",
          "type": "uint256"
        },
        {
          "indexed": false,
          "internalType": "uint256",
          "name": "timestamp",
          "type": "uint256"
        }
      ],
      "name": "ProposalCreated",
      "type": "event"
    },
    {
      "anonymous": false,
      "inputs": [
        {
          "indexed": true,
          "internalType": "string",
          "name": "proposalId",
          "type": "string"
        },
        {
          "indexed": false,
          "internalType": "uint256",
          "name": "timestamp",
          "type": "uint256"
        }
      ],
      "name": "ProposalFinalized",
      "type": "event"
    },
    {
      "anonymous": false,
      "inputs": [
        {
          "indexed": true,
          "internalType": "string",
          "name": "proposalId",
          "type": "string"
        },
        {
          "indexed": false,
          "internalType": "string",
          "name": "reason",
          "type": "string"
        },
        {
          "indexed": false,
          "internalType": "uint256",
          "name": "timestamp",
          "type": "uint256"
        }
      ],
      "name": "ProposalVetoed",
      "type": "event"
    },
    {
      "anonymous": false,
      "inputs": [
        {
          "indexed": true,
          "internalType": "address",
          "name": "account",
          "type": "address"
        },
        {
          "indexed": false,
          "internalType": "string",
          "name": "userId",
          "type": "string"
        },
        {
          "indexed": false,
          "internalType": "enum GovernanceRegistry.Role",
          "name": "role",
          "type": "uint8"
        },
        {
          "indexed": false,
          "internalType": "uint256",
          "name": "timestamp",
          "type": "uint256"
        }
      ],
      "name": "RoleAssigned",
      "type": "event"
    },
    {
      "anonymous": false,
      "inputs": [
        {
          "indexed": true,
          "internalType": "string",
          "name": "proposalId",
          "type": "string"
        },
        {
          "indexed": true,
          "internalType": "address",
          "name": "voter",
          "type": "address"
        },
        {
          "indexed": false,
          "internalType": "string",
          "name": "voterUserId",
          "type": "string"
        },
        {
          "indexed": false,
          "internalType": "bool",
          "name": "inFavor",
          "type": "bool"
        },
        {
          "indexed": false,
          "internalType": "uint256",
          "name": "weight",
          "type": "uint256"
        },
        {
          "indexed": false,
          "internalType": "uint256",
          "name": "timestamp",
          "type": "uint256"
        }
      ],
      "name": "VoteCast",
      "type": "event"
    },
    {
      "inputs": [
        {
          "internalType": "address",
          "name": "account",
          "type": "address"
        },
        {
          "internalType": "string",
          "name": "userId",
          "type": "string"
        },
        {
          "internalType": "enum GovernanceRegistry.Role",
          "name": "role",
          "type": "uint8"
        }
      ],
      "name": "assignRole",
      "outputs": [],
      "stateMutability": "nonpayable",
      "type": "function"
    },
    {
      "inputs": [
        {
          "internalType": "string",
          "name": "proposalId",
          "type": "string"
        },
        {
          "internalType": "string",
          "name": "contentHash",
          "type": "string"
        },
        {
          "internalType": "string",
          "name": "proposerUserId",
          "type": "string"
        },
        {
          "internalType": "uint256",
          "name": "deadline",
          "type": "uint256"
        }
      ],
      "name": "createProposal",
      "outputs": [],
      "stateMutability": "nonpayable",
      "type": "function"
    },
    {
      "inputs": [],
      "name": "elder",
      "outputs": [
        {
          "internalType": "address",
          "name": "",
          "type": "address"
        }
      ],
      "stateMutability": "view",
      "type": "function"
    },
    {
      "inputs": [],
      "name": "elderVoteWeight",
      "outputs": [
        {
          "internalType": "uint256",
          "name": "",
          "type": "uint256"
        }
      ],
      "stateMutability": "view",
      "type": "function"
    },
    {
      "inputs": [
        {
          "internalType": "string",
          "name": "proposalId",
          "type": "string"
        }
      ],
      "name": "finalizeProposal",
      "outputs": [],
      "stateMutability": "nonpayable",
      "type": "function"
    },
    {
      "inputs": [
        {
          "internalType": "string",
          "name": "proposalId",
          "type": "string"
        }
      ],
      "name": "getProposal",
      "outputs": [
        {
          "components": [
            {
              "internalType": "string",
              "name": "proposalId",
              "type": "string"
            },
            {
              "internalType": "string",
              "name": "contentHash",
              "type": "string"
            },
            {
              "internalType": "string",
              "name": "proposerUserId",
              "type": "string"
            },
            {
              "internalType": "uint256",
              "name": "votesFor",
              "type": "uint256"
            },
            {
              "internalType": "uint256",
              "name": "votesAgainst",
              "type": "uint256"
            },
            {
              "internalType": "uint256",
              "name": "createdAt",
              "type": "uint256"
            },
            {
              "internalType": "uint256",
              "name": "deadline",
              "type": "uint256"
            },
            {
              "internalType": "enum GovernanceRegistry.ProposalStatus",
              "name": "status",
              "type": "uint8"
            },
            {
              "internalType": "bool",
              "name": "exists",
              "type": "bool"
            }
          ],
          "internalType": "struct GovernanceRegistry.Proposal",
          "name": "",
          "type": "tuple"
        }
      ],
      "stateMutability": "view",
      "type": "function"
    },
    {
      "inputs": [
        {
          "internalType": "address",
          "name": "account",
          "type": "address"
        }
      ],
      "name": "getRole",
      "outputs": [
        {
          "internalType": "enum GovernanceRegistry.Role",
          "name": "",
          "type": "uint8"
        }
      ],
      "stateMutability": "view",
      "type": "function"
    },
    {
      "inputs": [
        {
          "internalType": "string",
          "name": "",
          "type": "string"
        },
        {
          "internalType": "address",
          "name": "",
          "type": "address"
        }
      ],
      "name": "hasVoted",
      "outputs": [
        {
          "internalType": "bool",
          "name": "",
          "type": "bool"
        }
      ],
      "stateMutability": "view",
      "type": "function"
    },
    {
      "inputs": [
        {
          "internalType": "string",
          "name": "",
          "type": "string"
        }
      ],
      "name": "proposals",
      "outputs": [
        {
          "internalType": "string",
          "name": "proposalId",
          "type": "string"
        },
        {
          "internalType": "string",
          "name": "contentHash",
          "type": "string"
        },
        {
          "internalType": "string",
          "name": "proposerUserId",
          "type": "string"
        },
        {
          "internalType": "uint256",
          "name": "votesFor",
          "type": "uint256"
        },
        {
          "internalType": "uint256",
          "name": "votesAgainst",
          "type": "uint256"
        },
        {
          "internalType": "uint256",
          "name": "createdAt",
          "type": "uint256"
        },
        {
          "internalType": "uint256",
          "name": "deadline",
          "type": "uint256"
        },
        {
          "internalType": "enum GovernanceRegistry.ProposalStatus",
          "name": "status",
          "type": "uint8"
        },
        {
          "internalType": "bool",
          "name": "exists",
          "type": "bool"
        }
      ],
      "stateMutability": "view",
      "type": "function"
    },
    {
      "inputs": [],
      "name": "quorumThreshold",
      "outputs": [
        {
          "internalType": "uint256",
          "name": "",
          "type": "uint256"
        }
      ],
      "stateMutability": "view",
      "type": "function"
    },
    {
      "inputs": [
        {
          "internalType": "address",
          "name": "",
          "type": "address"
        }
      ],
      "name": "roles",
      "outputs": [
        {
          "internalType": "enum GovernanceRegistry.Role",
          "name": "",
          "type": "uint8"
        }
      ],
      "stateMutability": "view",
      "type": "function"
    },
    {
      "inputs": [],
      "name": "totalMembers",
      "outputs": [
        {
          "internalType": "uint256",
          "name": "",
          "type": "uint256"
        }
      ],
      "stateMutability": "view",
      "type": "function"
    },
    {
      "inputs": [],
      "name": "totalProposals",
      "outputs": [
        {
          "internalType": "uint256",
          "name": "",
          "type": "uint256"
        }
      ],
      "stateMutability": "view",
      "type": "function"
    },
    {
      "inputs": [
        {
          "internalType": "address",
          "name": "newElder",
          "type": "address"
        }
      ],
      "name": "transferEldership",
      "outputs": [],
      "stateMutability": "nonpayable",
      "type": "function"
    },
    {
      "inputs": [
        {
          "internalType": "address",
          "name": "",
          "type": "address"
        }
      ],
      "name": "userIds",
      "outputs": [
        {
          "internalType": "string",
          "name": "",
          "type": "string"
        }
      ],
      "stateMutability": "view",
      "type": "function"
    },
    {
      "inputs": [
        {
          "internalType": "string",
          "name": "proposalId",
          "type": "string"
        },
        {
          "internalType": "string",
          "name": "reason",
          "type": "string"
        }
      ],
      "name": "veto",
      "outputs": [],
      "stateMutability": "nonpayable",
      "type": "function"
    },
    {
      "inputs": [
        {
          "internalType": "string",
          "name": "proposalId",
          "type": "string"
        },
        {
          "internalType": "bool",
          "name": "inFavor",
          "type": "bool"
        }
      ],
      "name": "vote",
      "outputs": [],
      "stateMutability": "nonpayable",
      "type": "function"
    }
  ],
  "bytecode": "0x6080604052600360075560336008553480156200001b57600080fd5b5033600260006101000a81548173ffffffffffffffffffffffffffffffffffffffff021916908373ffffffffffffffffffffffffffffffffffffffff16021790555060026000803373ffffffffffffffffffffffffffffffffffffffff1673ffffffffffffffffffffffffffffffffffffffff16815260200190815260200160002060006101000a81548160ff02191690836002811115620000c257620000c1620000d5565b5b0217905550600160038190555062000104565b7f4e487b7100000000000000000000000000000000000000000000000000000000600052602160045260246000fd5b61359a80620001146000396000f3fe608060405234801561001057600080fd5b506004361061010b5760003560e01c80637b7a91dd116100a2578063c2c55faa11610071578063c2c55faa146102cc578063df725e3f146102ea578063e2e14c8514610306578063e4c5869a14610322578063ffa0d2a41461033e5761010b565b80637b7a91dd14610230578063993746421461024e5780639af06cd91461027e578063a78d80fc146102ae5761010b565b806344276733116100de57806344276733146101a85780634c15676b146101d857806376e92559146101f457806379f63a9a146102125761010b565b806325d3a09d1461011057806327d3410c146101405780632cf347ef1461015c5780634081db5114610178575b600080fd5b61012a60048036038101906101259190611fca565b610376565b6040516101379190612225565b60405180910390f35b61015a60048036038101906101559190612273565b610656565b005b61017660048036038101906101719190612356565b610cb3565b005b610192600480360381019061018d91906123ca565b610f79565b60405161019f9190612441565b60405180910390f35b6101c260048036038101906101bd91906123ca565b611019565b6040516101cf91906124ab565b60405180910390f35b6101f260048036038101906101ed91906124f2565b61106e565b005b6101fc6114c8565b60405161020991906125ca565b60405180910390f35b61021a6114ce565b60405161022791906125ca565b60405180910390f35b6102386114d4565b60405161024591906125ca565b60405180910390f35b610268600480360381019061026391906123ca565b6114da565b60405161027591906124ab565b60405180910390f35b61029860048036038101906102939190612715565b6114fa565b6040516102a59190612780565b60405180910390f35b6102b661153f565b6040516102c391906125ca565b60405180910390f35b6102d4611545565b6040516102e191906127aa565b60405180910390f35b61030460048036038101906102ff91906127c5565b61156b565b005b610320600480360381019061031b91906123ca565b6117af565b005b61033c60048036038101906103379190611fca565b611add565b005b61035860048036038101906103539190612846565b611cdb565b60405161036d9998979695949392919061289e565b60405180910390f35b61037e611ef1565b60048383604051610390929190612970565b908152602001604051809103902060070160019054906101000a900460ff166103ee576040517f08c379a00000000000000000000000000000000000000000000000000000000081526004016103e5906129d5565b60405180910390fd5b60048383604051610400929190612970565b90815260200160405180910390206040518061012001604052908160008201805461042a90612a24565b80601f016020809104026020016040519081016040528092919081815260200182805461045690612a24565b80156104a35780601f10610478576101008083540402835291602001916104a3565b820191906000526020600020905b81548152906001019060200180831161048657829003601f168201915b505050505081526020016001820180546104bc90612a24565b80601f01602080910402602001604051908101604052809291908181526020018280546104e890612a24565b80156105355780601f1061050a57610100808354040283529160200191610535565b820191906000526020600020905b81548152906001019060200180831161051857829003601f168201915b5050505050815260200160028201805461054e90612a24565b80601f016020809104026020016040519081016040528092919081815260200182805461057a90612a24565b80156105c75780601f1061059c576101008083540402835291602001916105c7565b820191906000526020600020905b8154815290600101906020018083116105aa57829003601f168201915b50505050508152602001600382015481526020016004820154815260200160058201548152602001600682015481526020016007820160009054906101000a900460ff16600481111561061d5761061c6120c0565b5b600481111561062f5761062e6120c0565b5b81526020016007820160019054906101000a900460ff161515151581525050905092915050565b6001600281111561066a576106696120c0565b5b6000803373ffffffffffffffffffffffffffffffffffffffff1673ffffffffffffffffffffffffffffffffffffffff16815260200190815260200160002060009054906101000a900460ff1660028111156106c8576106c76120c0565b5b148061074257506002808111156106e2576106e16120c0565b5b6000803373ffffffffffffffffffffffffffffffffffffffff1673ffffffffffffffffffffffffffffffffffffffff16815260200190815260200160002060009054906101000a900460ff1660028111156107405761073f6120c0565b5b145b610781576040517f08c379a000000000000000000000000000000000000000000000000000000000815260040161077890612aa1565b60405180910390fd5b600060048484604051610795929190612970565b908152602001604051809103902090508060070160019054906101000a900460ff166107f6576040517f08c379a00000000000000000000000000000000000000000000000000000000081526004016107ed906129d5565b60405180910390fd5b6000600481111561080a576108096120c0565b5b8160070160009054906101000a900460ff16600481111561082e5761082d6120c0565b5b1461086e576040517f08c379a000000000000000000000000000000000000000000000000000000000815260040161086590612b0d565b60405180910390fd5b80600601544211156108b5576040517f08c379a00000000000000000000000000000000000000000000000000000000081526004016108ac90612b79565b60405180910390fd5b600584846040516108c7929190612970565b908152602001604051809103902060003373ffffffffffffffffffffffffffffffffffffffff1673ffffffffffffffffffffffffffffffffffffffff16815260200190815260200160002060009054906101000a900460ff1615610960576040517f08c379a000000000000000000000000000000000000000000000000000000000815260040161095790612be5565b60405180910390fd5b600160058585604051610974929190612970565b908152602001604051809103902060003373ffffffffffffffffffffffffffffffffffffffff1673ffffffffffffffffffffffffffffffffffffffff16815260200190815260200160002060006101000a81548160ff02191690831515021790555060006002808111156109eb576109ea6120c0565b5b6000803373ffffffffffffffffffffffffffffffffffffffff1673ffffffffffffffffffffffffffffffffffffffff16815260200190815260200160002060009054906101000a900460ff166002811115610a4957610a486120c0565b5b14610a55576001610a59565b6007545b90508215610a815780826003016000828254610a759190612c34565b92505081905550610a9d565b80826004016000828254610a959190612c34565b925050819055505b6000600160003373ffffffffffffffffffffffffffffffffffffffff1673ffffffffffffffffffffffffffffffffffffffff1681526020019081526020016000208054610ae990612a24565b80601f0160208091040260200160405190810160405280929190818152602001828054610b1590612a24565b8015610b625780601f10610b3757610100808354040283529160200191610b62565b820191906000526020600020905b815481529060010190602001808311610b4557829003601f168201915b505050505090503373ffffffffffffffffffffffffffffffffffffffff168686604051610b90929190612970565b60405180910390207f4ef5fb2ff7db9fb1b3f3872f5d2d5dab0b9c88f0e1737ddfa46bbde3566f4bbf83878642604051610bcd9493929190612c68565b60405180910390a3600083600401548460030154610beb9190612c34565b90506000811115610caa5760008160648660030154610c0a9190612cb4565b610c149190612d25565b90506008548110610ca85760018560070160006101000a81548160ff02191690836004811115610c4757610c466120c0565b5b02179055508787604051610c5c929190612970565b60405180910390207f2f1eb54478125d5bc831af7dd3e725342058b298757df517d48ccc5ef6e19b658660030154876004015442604051610c9f93929190612d56565b60405180910390a25b505b50505050505050565b600260009054906101000a900473ffffffffffffffffffffffffffffffffffffffff1673ffffffffffffffffffffffffffffffffffffffff163373ffffffffffffffffffffffffffffffffffffffff1614610d43576040517f08c379a0000000000000000000000000000000000000000000000000000000008152600401610d3a90612dff565b60405180910390fd5b600280811115610d5657610d556120c0565b5b816002811115610d6957610d686120c0565b5b03610da9576040517f08c379a0000000000000000000000000000000000000000000000000000000008152600401610da090612e91565b60405180910390fd5b60006002811115610dbd57610dbc6120c0565b5b6000808673ffffffffffffffffffffffffffffffffffffffff1673ffffffffffffffffffffffffffffffffffffffff16815260200190815260200160002060009054906101000a900460ff166002811115610e1b57610e1a6120c0565b5b148015610e4c575060016002811115610e3757610e366120c0565b5b816002811115610e4a57610e496120c0565b5b145b15610e6a5760036000815480929190610e6490612eb1565b91905055505b806000808673ffffffffffffffffffffffffffffffffffffffff1673ffffffffffffffffffffffffffffffffffffffff16815260200190815260200160002060006101000a81548160ff02191690836002811115610ecb57610eca6120c0565b5b02179055508282600160008773ffffffffffffffffffffffffffffffffffffffff1673ffffffffffffffffffffffffffffffffffffffff1681526020019081526020016000209182610f1e9291906130b0565b508373ffffffffffffffffffffffffffffffffffffffff167f02d55317bc4ccf0d69ef42e6e8de29990aafd41fba032a7121ee95af14c3f4b884848442604051610f6b94939291906131ad565b60405180910390a250505050565b60016020528060005260406000206000915090508054610f9890612a24565b80601f0160208091040260200160405190810160405280929190818152602001828054610fc490612a24565b80156110115780601f10610fe657610100808354040283529160200191611011565b820191906000526020600020905b815481529060010190602001808311610ff457829003601f168201915b505050505081565b60008060008373ffffffffffffffffffffffffffffffffffffffff1673ffffffffffffffffffffffffffffffffffffffff16815260200190815260200160002060009054906101000a900460ff169050919050565b60016002811115611082576110816120c0565b5b6000803373ffffffffffffffffffffffffffffffffffffffff1673ffffffffffffffffffffffffffffffffffffffff16815260200190815260200160002060009054906101000a900460ff1660028111156110e0576110df6120c0565b5b148061115a57506002808111156110fa576110f96120c0565b5b6000803373ffffffffffffffffffffffffffffffffffffffff1673ffffffffffffffffffffffffffffffffffffffff16815260200190815260200160002060009054906101000a900460ff166002811115611158576111576120c0565b5b145b611199576040517f08c379a000000000000000000000000000000000000000000000000000000000815260040161119090612aa1565b60405180910390fd5b600487876040516111ab929190612970565b908152602001604051809103902060070160019054906101000a900460ff161561120a576040517f08c379a000000000000000000000000000000000000000000000000000000000815260040161120190613239565b60405180910390fd5b42811161124c576040517f08c379a0000000000000000000000000000000000000000000000000000000008152600401611243906132a5565b60405180910390fd5b60405180610120016040528088888080601f016020809104026020016040519081016040528093929190818152602001838380828437600081840152601f19601f82011690508083019250505050505050815260200186868080601f016020809104026020016040519081016040528093929190818152602001838380828437600081840152601f19601f82011690508083019250505050505050815260200184848080601f016020809104026020016040519081016040528093929190818152602001838380828437600081840152601f19601f820116905080830192505050505050508152602001600081526020016000815260200142815260200182815260200160006004811115611364576113636120c0565b5b81526020016001151581525060048888604051611382929190612970565b908152602001604051809103902060008201518160000190816113a591906132c5565b5060208201518160010190816113bb91906132c5565b5060408201518160020190816113d191906132c5565b50606082015181600301556080820151816004015560a0820151816005015560c0820151816006015560e08201518160070160006101000a81548160ff02191690836004811115611425576114246120c0565b5b02179055506101008201518160070160016101000a81548160ff0219169083151502179055509050506006600081548092919061146190612eb1565b91905055508686604051611476929190612970565b60405180910390207f1e7a7b8e767bbffe3104dffd7a7d40516de5fb5ee584dc76fec3eed43ebaab6e8686868686426040516114b796959493929190613397565b60405180910390a250505050505050565b60035481565b60075481565b60085481565b60006020528060005260406000206000915054906101000a900460ff1681565b6005828051602081018201805184825260208301602085012081835280955050505050506020528060005260406000206000915091509054906101000a900460ff1681565b60065481565b600260009054906101000a900473ffffffffffffffffffffffffffffffffffffffff1681565b600260009054906101000a900473ffffffffffffffffffffffffffffffffffffffff1673ffffffffffffffffffffffffffffffffffffffff163373ffffffffffffffffffffffffffffffffffffffff16146115fb576040517f08c379a00000000000000000000000000000000000000000000000000000000081526004016115f290612dff565b60405180910390fd5b60006004858560405161160f929190612970565b908152602001604051809103902090508060070160019054906101000a900460ff16611670576040517f08c379a0000000000000000000000000000000000000000000000000000000008152600401611667906129d5565b60405180910390fd5b60006004811115611684576116836120c0565b5b8160070160009054906101000a900460ff1660048111156116a8576116a76120c0565b5b14806116e95750600160048111156116c3576116c26120c0565b5b8160070160009054906101000a900460ff1660048111156116e7576116e66120c0565b5b145b611728576040517f08c379a000000000000000000000000000000000000000000000000000000000815260040161171f9061343a565b60405180910390fd5b60028160070160006101000a81548160ff021916908360048111156117505761174f6120c0565b5b02179055508484604051611765929190612970565b60405180910390207f60e923c2e2ea16eca96886596c8a2ca29b8c2789ff914656af70a899a5fb34a08484426040516117a09392919061345a565b60405180910390a25050505050565b600260009054906101000a900473ffffffffffffffffffffffffffffffffffffffff1673ffffffffffffffffffffffffffffffffffffffff163373ffffffffffffffffffffffffffffffffffffffff161461183f576040517f08c379a000000000000000000000000000000000000000000000000000000000815260040161183690612dff565b60405180910390fd5b600073ffffffffffffffffffffffffffffffffffffffff168173ffffffffffffffffffffffffffffffffffffffff16036118ae576040517f08c379a00000000000000000000000000000000000000000000000000000000081526004016118a5906134d8565b60405180910390fd5b6000600260009054906101000a900473ffffffffffffffffffffffffffffffffffffffff16905060016000808373ffffffffffffffffffffffffffffffffffffffff1673ffffffffffffffffffffffffffffffffffffffff16815260200190815260200160002060006101000a81548160ff02191690836002811115611937576119366120c0565b5b021790555060026000808473ffffffffffffffffffffffffffffffffffffffff1673ffffffffffffffffffffffffffffffffffffffff16815260200190815260200160002060006101000a81548160ff0219169083600281111561199e5761199d6120c0565b5b021790555081600260006101000a81548173ffffffffffffffffffffffffffffffffffffffff021916908373ffffffffffffffffffffffffffffffffffffffff160217905550600060028111156119f8576119f76120c0565b5b6000808473ffffffffffffffffffffffffffffffffffffffff1673ffffffffffffffffffffffffffffffffffffffff16815260200190815260200160002060009054906101000a900460ff166002811115611a5657611a556120c0565b5b03611a745760036000815480929190611a6e90612eb1565b91905055505b8173ffffffffffffffffffffffffffffffffffffffff168173ffffffffffffffffffffffffffffffffffffffff167fc15b2608ffaa7d016c7ffca51a1d8f9e3479df8573b3a13422ae24e3d053e5c742604051611ad191906125ca565b60405180910390a35050565b600260009054906101000a900473ffffffffffffffffffffffffffffffffffffffff1673ffffffffffffffffffffffffffffffffffffffff163373ffffffffffffffffffffffffffffffffffffffff1614611b6d576040517f08c379a0000000000000000000000000000000000000000000000000000000008152600401611b6490612dff565b60405180910390fd5b600060048383604051611b81929190612970565b908152602001604051809103902090508060070160019054906101000a900460ff16611be2576040517f08c379a0000000000000000000000000000000000000000000000000000000008152600401611bd9906129d5565b60405180910390fd5b60016004811115611bf657611bf56120c0565b5b8160070160009054906101000a900460ff166004811115611c1a57611c196120c0565b5b14611c5a576040517f08c379a0000000000000000000000000000000000000000000000000000000008152600401611c5190613544565b60405180910390fd5b60038160070160006101000a81548160ff02191690836004811115611c8257611c816120c0565b5b02179055508282604051611c97929190612970565b60405180910390207fc813800d40f9562c6cd8b88dca46905c03ffb7a35122d8eb690a5b4b7b3deb8242604051611cce91906125ca565b60405180910390a2505050565b600481805160208101820180518482526020830160208501208183528095505050505050600091509050806000018054611d1490612a24565b80601f0160208091040260200160405190810160405280929190818152602001828054611d4090612a24565b8015611d8d5780601f10611d6257610100808354040283529160200191611d8d565b820191906000526020600020905b815481529060010190602001808311611d7057829003601f168201915b505050505090806001018054611da290612a24565b80601f0160208091040260200160405190810160405280929190818152602001828054611dce90612a24565b8015611e1b5780601f10611df057610100808354040283529160200191611e1b565b820191906000526020600020905b815481529060010190602001808311611dfe57829003601f168201915b505050505090806002018054611e3090612a24565b80601f0160208091040260200160405190810160405280929190818152602001828054611e5c90612a24565b8015611ea95780601f10611e7e57610100808354040283529160200191611ea9565b820191906000526020600020905b815481529060010190602001808311611e8c57829003601f168201915b5050505050908060030154908060040154908060050154908060060154908060070160009054906101000a900460ff16908060070160019054906101000a900460ff16905089565b6040518061012001604052806060815260200160608152602001606081526020016000815260200160008152602001600081526020016000815260200160006004811115611f4257611f416120c0565b5b81526020016000151581525090565b6000604051905090565b600080fd5b600080fd5b600080fd5b600080fd5b600080fd5b60008083601f840112611f8a57611f89611f65565b5b8235905067ffffffffffffffff811115611fa757611fa6611f6a565b5b602083019150836001820283011115611fc357611fc2611f6f565b5b9250929050565b60008060208385031215611fe157611fe0611f5b565b5b600083013567ffffffffffffffff811115611fff57611ffe611f60565b5b61200b85828601611f74565b92509250509250929050565b600081519050919050565b600082825260208201905092915050565b60005b83811015612051578082015181840152602081019050612036565b60008484015250505050565b6000601f19601f8301169050919050565b600061207982612017565b6120838185612022565b9350612093818560208601612033565b61209c8161205d565b840191505092915050565b6000819050919050565b6120ba816120a7565b82525050565b7f4e487b7100000000000000000000000000000000000000000000000000000000600052602160045260246000fd5b60058110612100576120ff6120c0565b5b50565b6000819050612111826120ef565b919050565b600061212182612103565b9050919050565b61213181612116565b82525050565b60008115159050919050565b61214c81612137565b82525050565b6000610120830160008301518482036000860152612170828261206e565b9150506020830151848203602086015261218a828261206e565b915050604083015184820360408601526121a4828261206e565b91505060608301516121b960608601826120b1565b5060808301516121cc60808601826120b1565b5060a08301516121df60a08601826120b1565b5060c08301516121f260c08601826120b1565b5060e083015161220560e0860182612128565b5061010083015161221a610100860182612143565b508091505092915050565b6000602082019050818103600083015261223f8184612152565b905092915050565b61225081612137565b811461225b57600080fd5b50565b60008135905061226d81612247565b92915050565b60008060006040848603121561228c5761228b611f5b565b5b600084013567ffffffffffffffff8111156122aa576122a9611f60565b5b6122b686828701611f74565b935093505060206122c98682870161225e565b9150509250925092565b600073ffffffffffffffffffffffffffffffffffffffff82169050919050565b60006122fe826122d3565b9050919050565b61230e816122f3565b811461231957600080fd5b50565b60008135905061232b81612305565b92915050565b6003811061233e57600080fd5b50565b60008135905061235081612331565b92915050565b600080600080606085870312156123705761236f611f5b565b5b600061237e8782880161231c565b945050602085013567ffffffffffffffff81111561239f5761239e611f60565b5b6123ab87828801611f74565b935093505060406123be87828801612341565b91505092959194509250565b6000602082840312156123e0576123df611f5b565b5b60006123ee8482850161231c565b91505092915050565b600082825260208201905092915050565b600061241382612017565b61241d81856123f7565b935061242d818560208601612033565b6124368161205d565b840191505092915050565b6000602082019050818103600083015261245b8184612408565b905092915050565b60038110612474576124736120c0565b5b50565b600081905061248582612463565b919050565b600061249582612477565b9050919050565b6124a58161248a565b82525050565b60006020820190506124c0600083018461249c565b92915050565b6124cf816120a7565b81146124da57600080fd5b50565b6000813590506124ec816124c6565b92915050565b60008060008060008060006080888a03121561251157612510611f5b565b5b600088013567ffffffffffffffff81111561252f5761252e611f60565b5b61253b8a828b01611f74565b9750975050602088013567ffffffffffffffff81111561255e5761255d611f60565b5b61256a8a828b01611f74565b9550955050604088013567ffffffffffffffff81111561258d5761258c611f60565b5b6125998a828b01611f74565b935093505060606125ac8a828b016124dd565b91505092959891949750929550565b6125c4816120a7565b82525050565b60006020820190506125df60008301846125bb565b92915050565b600080fd5b7f4e487b7100000000000000000000000000000000000000000000000000000000600052604160045260246000fd5b6126228261205d565b810181811067ffffffffffffffff82111715612641576126406125ea565b5b80604052505050565b6000612654611f51565b90506126608282612619565b919050565b600067ffffffffffffffff8211156126805761267f6125ea565b5b6126898261205d565b9050602081019050919050565b82818337600083830152505050565b60006126b86126b384612665565b61264a565b9050828152602081018484840111156126d4576126d36125e5565b5b6126df848285612696565b509392505050565b600082601f8301126126fc576126fb611f65565b5b813561270c8482602086016126a5565b91505092915050565b6000806040838503121561272c5761272b611f5b565b5b600083013567ffffffffffffffff81111561274a57612749611f60565b5b612756858286016126e7565b92505060206127678582860161231c565b9150509250929050565b61277a81612137565b82525050565b60006020820190506127956000830184612771565b92915050565b6127a4816122f3565b82525050565b60006020820190506127bf600083018461279b565b92915050565b600080600080604085870312156127df576127de611f5b565b5b600085013567ffffffffffffffff8111156127fd576127fc611f60565b5b61280987828801611f74565b9450945050602085013567ffffffffffffffff81111561282c5761282b611f60565b5b61283887828801611f74565b925092505092959194509250565b60006020828403121561285c5761285b611f5b565b5b600082013567ffffffffffffffff81111561287a57612879611f60565b5b612886848285016126e7565b91505092915050565b61289881612116565b82525050565b60006101208201905081810360008301526128b9818c612408565b905081810360208301526128cd818b612408565b905081810360408301526128e1818a612408565b90506128f060608301896125bb565b6128fd60808301886125bb565b61290a60a08301876125bb565b61291760c08301866125bb565b61292460e083018561288f565b612932610100830184612771565b9a9950505050505050505050565b600081905092915050565b60006129578385612940565b9350612964838584612696565b82840190509392505050565b600061297d82848661294b565b91508190509392505050565b7f50726f707565737461206e6f2065786973746500000000000000000000000000600082015250565b60006129bf6013836123f7565b91506129ca82612989565b602082019050919050565b600060208201905081810360008301526129ee816129b2565b9050919050565b7f4e487b7100000000000000000000000000000000000000000000000000000000600052602260045260246000fd5b60006002820490506001821680612a3c57607f821691505b602082108103612a4f57612a4e6129f5565b5b50919050565b7f446562657320736572206d69656d62726f206f20456c64657200000000000000600082015250565b6000612a8b6019836123f7565b9150612a9682612a55565b602082019050919050565b60006020820190508181036000830152612aba81612a7e565b9050919050565b7f50726f707565737461206e6f2065737461206162696572746100000000000000600082015250565b6000612af76019836123f7565b9150612b0282612ac1565b602082019050919050565b60006020820190508181036000830152612b2681612aea565b9050919050565b7f566f746163696f6e206365727261646100000000000000000000000000000000600082015250565b6000612b636010836123f7565b9150612b6e82612b2d565b602082019050919050565b60006020820190508181036000830152612b9281612b56565b9050919050565b7f596120766f746173746500000000000000000000000000000000000000000000600082015250565b6000612bcf600a836123f7565b9150612bda82612b99565b602082019050919050565b60006020820190508181036000830152612bfe81612bc2565b9050919050565b7f4e487b7100000000000000000000000000000000000000000000000000000000600052601160045260246000fd5b6000612c3f826120a7565b9150612c4a836120a7565b9250828201905080821115612c6257612c61612c05565b5b92915050565b60006080820190508181036000830152612c828187612408565b9050612c916020830186612771565b612c9e60408301856125bb565b612cab60608301846125bb565b95945050505050565b6000612cbf826120a7565b9150612cca836120a7565b9250828202612cd8816120a7565b91508282048414831517612cef57612cee612c05565b5b5092915050565b7f4e487b7100000000000000000000000000000000000000000000000000000000600052601260045260246000fd5b6000612d30826120a7565b9150612d3b836120a7565b925082612d4b57612d4a612cf6565b5b828204905092915050565b6000606082019050612d6b60008301866125bb565b612d7860208301856125bb565b612d8560408301846125bb565b949350505050565b7f536f6c6f20656c20456c64657220707565646520656a6563757461722065737460008201527f6f00000000000000000000000000000000000000000000000000000000000000602082015250565b6000612de96021836123f7565b9150612df482612d8d565b604082019050919050565b60006020820190508181036000830152612e1881612ddc565b9050919050565b7f557361207472616e73666572456c64657273686970207061726120617369676e60008201527f617220456c646572000000000000000000000000000000000000000000000000602082015250565b6000612e7b6028836123f7565b9150612e8682612e1f565b604082019050919050565b60006020820190508181036000830152612eaa81612e6e565b9050919050565b6000612ebc826120a7565b91507fffffffffffffffffffffffffffffffffffffffffffffffffffffffffffffffff8203612eee57612eed612c05565b5b600182019050919050565b600082905092915050565b60008190508160005260206000209050919050565b60006020601f8301049050919050565b600082821b905092915050565b600060088302612f667fffffffffffffffffffffffffffffffffffffffffffffffffffffffffffffffff82612f29565b612f708683612f29565b95508019841693508086168417925050509392505050565b6000819050919050565b6000612fad612fa8612fa3846120a7565b612f88565b6120a7565b9050919050565b6000819050919050565b612fc783612f92565b612fdb612fd382612fb4565b848454612f36565b825550505050565b600090565b612ff0612fe3565b612ffb818484612fbe565b505050565b5b8181101561301f57613014600082612fe8565b600181019050613001565b5050565b601f8211156130645761303581612f04565b61303e84612f19565b8101602085101561304d578190505b61306161305985612f19565b830182613000565b50505b505050565b600082821c905092915050565b600061308760001984600802613069565b1980831691505092915050565b60006130a08383613076565b9150826002028217905092915050565b6130ba8383612ef9565b67ffffffffffffffff8111156130d3576130d26125ea565b5b6130dd8254612a24565b6130e8828285613023565b6000601f8311600181146131175760008415613105578287013590505b61310f8582613094565b865550613177565b601f19841661312586612f04565b60005b8281101561314d57848901358255600182019150602085019450602081019050613128565b8683101561316a5784890135613166601f891682613076565b8355505b6001600288020188555050505b50505050505050565b600061318c83856123f7565b9350613199838584612696565b6131a28361205d565b840190509392505050565b600060608201905081810360008301526131c8818688613180565b90506131d7602083018561249c565b6131e460408301846125bb565b95945050505050565b7f50726f7075657374612079612065786973746500000000000000000000000000600082015250565b60006132236013836123f7565b915061322e826131ed565b602082019050919050565b6000602082019050818103600083015261325281613216565b9050919050565b7f446561646c696e652064656265207365722066757475726f0000000000000000600082015250565b600061328f6018836123f7565b915061329a82613259565b602082019050919050565b600060208201905081810360008301526132be81613282565b9050919050565b6132ce82612017565b67ffffffffffffffff8111156132e7576132e66125ea565b5b6132f18254612a24565b6132fc828285613023565b600060209050601f83116001811461332f576000841561331d578287015190505b6133278582613094565b86555061338f565b601f19841661333d86612f04565b60005b8281101561336557848901518255600182019150602085019450602081019050613340565b86831015613382578489015161337e601f891682613076565b8355505b6001600288020188555050505b505050505050565b600060808201905081810360008301526133b281888a613180565b905081810360208301526133c7818688613180565b90506133d660408301856125bb565b6133e360608301846125bb565b979650505050505050565b7f4e6f20736520707565646520766574617220656e20657374652065737461646f600082015250565b60006134246020836123f7565b915061342f826133ee565b602082019050919050565b6000602082019050818103600083015261345381613417565b9050919050565b60006040820190508181036000830152613475818587613180565b905061348460208301846125bb565b949350505050565b7f446972656363696f6e20696e76616c6964610000000000000000000000000000600082015250565b60006134c26012836123f7565b91506134cd8261348c565b602082019050919050565b600060208201905081810360008301526134f1816134b5565b9050919050565b7f50726f707565737461206e6f2065737461206170726f62616461000000000000600082015250565b600061352e601a836123f7565b9150613539826134f8565b602082019050919050565b6000602082019050818103600083015261355d81613521565b905091905056fea26469706673582212208a7ca75f0b566cd05d2b311431ac9c67a3e2fd7e2f6a34d267330b272c16e3ec64736f6c63430008140033",
  "linkReferences": {},
  "deployedLinkReferences": {}
}