{
  "_format": "hh-sol-artifact-1",
  "contractName": "GovernanceRegistry",
  "sourceName": "contracts/GovernanceRegistry.sol",
  "abi": [
    {
      "inputs": [],
      "stateMutability": "nonpayable",
      "type": "constructor"
    },
    {
      "anonymous": false,
      "inputs": [
        {
          "indexed": true,
          "internalType": "address",
          "name": "previousElder",
          "type": "address"
        },
        {
          "indexed": true,
          "internalType": "address",
          "name": "newElder",
          "type": "address"
        }
      ],
      "name": "EldershipTransferred",
      "type": "event"
    },
    {
      "anonymous": false,
      "inputs": [
        {
          "indexed": false,
          "internalType": "string",
          "name": "proposalId",
          "type": "string"
        },
        {
          "indexed": false,
          "internalType": "string",
          "name": "contentHash",
          "type": "string"
        },
        {
          "indexed": false,
          "internalType": "string",
          "name": "proposerUserId",
          "type": "string"
        },
        {
          "indexed": false,
          "internalType": "uint256",
          "name": "deadline",
          "type": "uint256"
        }
      ],
      "name": "ProposalCreated",
      "type": "event"
    },
    {
      "anonymous": false,
      "inputs": [
        {
          "indexed": false,
          "internalType": "string",
          "name": "proposalId",
          "type": "string"
        },
        {
          "indexed": false,
          "internalType": "bool",
          "name": "approved",
          "type": "bool"
        }
      ],
      "name": "ProposalFinalized",
      "type": "event"
    },
    {
      "anonymous": false,
      "inputs": [
        {
          "indexed": false,
          "internalType": "string",
          "name": "proposalId",
          "type": "string"
        },
        {
          "indexed": false,
          "internalType": "string",
          "name": "reason",
          "type": "string"
        }
      ],
      "name": "ProposalVetoed",
      "type": "event"
    },
    {
      "anonymous": false,
      "inputs": [
        {
          "indexed": true,
          "internalType": "address",
          "name": "member",
          "type": "address"
        },
        {
          "indexed": false,
          "internalType": "string",
          "name": "userId",
          "type": "string"
        },
        {
          "indexed": false,
          "internalType": "enum GovernanceRegistry.Role",
          "name": "role",
          "type": "uint8"
        }
      ],
      "name": "RoleAssigned",
      "type": "event"
    },
    {
      "anonymous": false,
      "inputs": [
        {
          "indexed": false,
          "internalType": "string",
          "name": "proposalId",
          "type": "string"
        },
        {
          "indexed": true,
          "internalType": "address",
          "name": "voter",
          "type": "address"
        },
        {
          "indexed": false,
          "internalType": "bool",
          "name": "inFavor",
          "type": "bool"
        },
        {
          "indexed": false,
          "internalType": "uint256",
          "name": "weight",
          "type": "uint256"
        }
      ],
      "name": "VoteCast",
      "type": "event"
    },
    {
      "inputs": [
        {
          "internalType": "address",
          "name": "_member",
          "type": "address"
        },
        {
          "internalType": "string",
          "name": "_userId",
          "type": "string"
        },
        {
          "internalType": "enum GovernanceRegistry.Role",
          "name": "_role",
          "type": "uint8"
        }
      ],
      "name": "assignRole",
      "outputs": [],
      "stateMutability": "nonpayable",
      "type": "function"
    },
    {
      "inputs": [
        {
          "internalType": "string",
          "name": "_proposalId",
          "type": "string"
        },
        {
          "internalType": "string",
          "name": "_contentHash",
          "type": "string"
        },
        {
          "internalType": "string",
          "name": "_proposerUserId",
          "type": "string"
        },
        {
          "internalType": "uint256",
          "name": "_deadline",
          "type": "uint256"
        }
      ],
      "name": "createProposal",
      "outputs": [],
      "stateMutability": "nonpayable",
      "type": "function"
    },
    {
      "inputs": [],
      "name": "elder",
      "outputs": [
        {
          "internalType": "address",
          "name": "",
          "type": "address"
        }
      ],
      "stateMutability": "view",
      "type": "function"
    },
    {
      "inputs": [
        {
          "internalType": "string",
          "name": "_proposalId",
          "type": "string"
        }
      ],
      "name": "finalizeProposal",
      "outputs": [],
      "stateMutability": "nonpayable",
      "type": "function"
    },
    {
      "inputs": [
        {
          "internalType": "string",
          "name": "_proposalId",
          "type": "string"
        }
      ],
      "name": "getProposal",
      "outputs": [
        {
          "internalType": "string",
          "name": "proposalId",
          "type": "string"
        },
        {
          "internalType": "string",
          "name": "contentHash",
          "type": "string"
        },
        {
          "internalType": "string",
          "name": "proposerUserId",
          "type": "string"
        },
        {
          "internalType": "uint256",
          "name": "deadline",
          "type": "uint256"
        },
        {
          "internalType": "uint256",
          "name": "votesFor",
          "type": "uint256"
        },
        {
          "internalType": "uint256",
          "name": "votesAgainst",
          "type": "uint256"
        },
        {
          "internalType": "bool",
          "name": "vetoed",
          "type": "bool"
        },
        {
          "internalType": "string",
          "name": "vetoReason",
          "type": "string"
        },
        {
          "internalType": "bool",
          "name": "finalized",
          "type": "bool"
        },
        {
          "internalType": "bool",
          "name": "exists",
          "type": "bool"
        }
      ],
      "stateMutability": "view",
      "type": "function"
    },
    {
      "inputs": [
        {
          "internalType": "address",
          "name": "_member",
          "type": "address"
        }
      ],
      "name": "getRole",
      "outputs": [
        {
          "internalType": "enum GovernanceRegistry.Role",
          "name": "",
          "type": "uint8"
        }
      ],
      "stateMutability": "view",
      "type": "function"
    },
    {
      "inputs": [
        {
          "internalType": "string",
          "name": "",
          "type": "string"
        },
        {
          "internalType": "address",
          "name": "",
          "type": "address"
        }
      ],
      "name": "hasVoted",
      "outputs": [
        {
          "internalType": "bool",
          "name": "",
          "type": "bool"
        }
      ],
      "stateMutability": "view",
      "type": "function"
    },
    {
      "inputs": [
        {
          "internalType": "string",
          "name": "",
          "type": "string"
        }
      ],
      "name": "proposals",
      "outputs": [
        {
          "internalType": "string",
          "name": "proposalId",
          "type": "string"
        },
        {
          "internalType": "string",
          "name": "contentHash",
          "type": "string"
        },
        {
          "internalType": "string",
          "name": "proposerUserId",
          "type": "string"
        },
        {
          "internalType": "uint256",
          "name": "deadline",
          "type": "uint256"
        },
        {
          "internalType": "uint256",
          "name": "votesFor",
          "type": "uint256"
        },
        {
          "internalType": "uint256",
          "name": "votesAgainst",
          "type": "uint256"
        },
        {
          "internalType": "bool",
          "name": "vetoed",
          "type": "bool"
        },
        {
          "internalType": "string",
          "name": "vetoReason",
          "type": "string"
        },
        {
          "internalType": "bool",
          "name": "finalized",
          "type": "bool"
        },
        {
          "internalType": "bool",
          "name": "exists",
          "type": "bool"
        }
      ],
      "stateMutability": "view",
      "type": "function"
    },
    {
      "inputs": [
        {
          "internalType": "address",
          "name": "",
          "type": "address"
        }
      ],
      "name": "roles",
      "outputs": [
        {
          "internalType": "enum GovernanceRegistry.Role",
          "name": "",
          "type": "uint8"
        }
      ],
      "stateMutability": "view",
      "type": "function"
    },
    {
      "inputs": [
        {
          "internalType": "address",
          "name": "_newElder",
          "type": "address"
        }
      ],
      "name": "transferEldership",
      "outputs": [],
      "stateMutability": "nonpayable",
      "type": "function"
    },
    {
      "inputs": [
        {
          "internalType": "address",
          "name": "",
          "type": "address"
        }
      ],
      "name": "userIds",
      "outputs": [
        {
          "internalType": "string",
          "name": "",
          "type": "string"
        }
      ],
      "stateMutability": "view",
      "type": "function"
    },
    {
      "inputs": [
        {
          "internalType": "string",
          "name": "_proposalId",
          "type": "string"
        },
        {
          "internalType": "string",
          "name": "_reason",
          "type": "string"
        }
      ],
      "name": "veto",
      "outputs": [],
      "stateMutability": "nonpayable",
      "type": "function"
    },
    {
      "inputs": [
        {
          "internalType": "string",
          "name": "_proposalId",
          "type": "string"
        },
        {
          "internalType": "address",
          "name": "_voter",
          "type": "address"
        },
        {
          "internalType": "bool",
          "name": "_inFavor",
          "type": "bool"
        }
      ],
      "name": "vote",
      "outputs": [],
      "stateMutability": "nonpayable",
      "type": "function"
    }
  ],
  "bytecode": "0x608060405234801562000010575f80fd5b50335f806101000a81548173ffffffffffffffffffffffffffffffffffffffff021916908373ffffffffffffffffffffffffffffffffffffffff160217905550600260015f3373ffffffffffffffffffffffffffffffffffffffff1673ffffffffffffffffffffffffffffffffffffffff1681526020019081526020015f205f6101000a81548160ff02191690836002811115620000b357620000b262000191565b5b02179055506040518060400160405280600c81526020017f53595354454d5f454c444552000000000000000000000000000000000000000081525060025f3373ffffffffffffffffffffffffffffffffffffffff1673ffffffffffffffffffffffffffffffffffffffff1681526020019081526020015f20908162000139919062000422565b503373ffffffffffffffffffffffffffffffffffffffff167f1b8f42edc9b7affbd109fc6a03d57fbec6495325facd626fac3dd8917a73e3756002604051620001839190620005b3565b60405180910390a2620005e3565b7f4e487b71000000000000000000000000000000000000000000000000000000005f52602160045260245ffd5b5f81519050919050565b7f4e487b71000000000000000000000000000000000000000000000000000000005f52604160045260245ffd5b7f4e487b71000000000000000000000000000000000000000000000000000000005f52602260045260245ffd5b5f60028204905060018216806200023a57607f821691505b60208210810362000250576200024f620001f5565b5b50919050565b5f819050815f5260205f209050919050565b5f6020601f8301049050919050565b5f82821b905092915050565b5f60088302620002b47fffffffffffffffffffffffffffffffffffffffffffffffffffffffffffffffff8262000277565b620002c0868362000277565b95508019841693508086168417925050509392505050565b5f819050919050565b5f819050919050565b5f6200030a62000304620002fe84620002d8565b620002e1565b620002d8565b9050919050565b5f819050919050565b6200032583620002ea565b6200033d620003348262000311565b84845462000283565b825550505050565b5f90565b6200035362000345565b620003608184846200031a565b505050565b5b8181101562000387576200037b5f8262000349565b60018101905062000366565b5050565b601f821115620003d657620003a08162000256565b620003ab8462000268565b81016020851015620003bb578190505b620003d3620003ca8562000268565b83018262000365565b50505b505050565b5f82821c905092915050565b5f620003f85f1984600802620003db565b1980831691505092915050565b5f620004128383620003e7565b9150826002028217905092915050565b6200042d82620001be565b67ffffffffffffffff811115620004495762000448620001c8565b5b62000455825462000222565b620004628282856200038b565b5f60209050601f83116001811462000498575f841562000483578287015190505b6200048f858262000405565b865550620004fe565b601f198416620004a88662000256565b5f5b82811015620004d157848901518255600182019150602085019450602081019050620004aa565b86831015620004f15784890151620004ed601f891682620003e7565b8355505b6001600288020188555050505b505050505050565b5f82825260208201905092915050565b7f53595354454d5f454c44455200000000000000000000000000000000000000005f82015250565b5f6200054c600c8362000506565b9150620005598262000516565b602082019050919050565b6003811062000578576200057762000191565b5b50565b5f8190506200058a8262000564565b919050565b5f6200059b826200057b565b9050919050565b620005ad816200058f565b82525050565b5f6040820190508181035f830152620005cc816200053e565b9050620005dd6020830184620005a2565b92915050565b61338380620005f15f395ff3fe608060405234801561000f575f80fd5b50600436106100cd575f3560e01c8063993746421161008a578063df725e3f11610064578063df725e3f1461023c578063e2e14c8514610258578063e4c5869a14610274578063ffa0d2a414610290576100cd565b806399374642146101be5780639af06cd9146101ee578063c2c55faa1461021e576100cd565b806325d3a09d146100d15780632cf347ef1461010a5780634081db511461012657806344276733146101565780634c15676b146101865780638ed8c889146101a2575b5f80fd5b6100eb60048036038101906100e69190611da0565b6102c9565b6040516101019a99989796959493929190611ea7565b60405180910390f35b610124600480360381019061011f9190611fda565b6105e8565b005b610140600480360381019061013b919061204b565b6107ec565b60405161014d9190612076565b60405180910390f35b610170600480360381019061016b919061204b565b610887565b60405161017d9190612109565b60405180910390f35b6101a0600480360381019061019b919061214c565b6108d9565b005b6101bc60048036038101906101b7919061223a565b610d1a565b005b6101d860048036038101906101d3919061204b565b611209565b6040516101e59190612109565b60405180910390f35b610208600480360381019061020391906123d3565b611226565b604051610215919061242d565b60405180910390f35b610226611268565b6040516102339190612455565b60405180910390f35b6102566004803603810190610251919061246e565b61128b565b005b610272600480360381019061026d919061204b565b6114a2565b005b61028e60048036038101906102899190611da0565b61187b565b005b6102aa60048036038101906102a591906124ec565b611a89565b6040516102c09a99989796959493929190611ea7565b60405180910390f35b60608060605f805f8060605f805f60038d8d6040516102e9929190612561565b908152602001604051809103902090508060080160019054906101000a900460ff1661034a576040517f08c379a0000000000000000000000000000000000000000000000000000000008152600401610341906125e9565b60405180910390fd5b805f018160010182600201836003015484600401548560050154866006015f9054906101000a900460ff1687600701886008015f9054906101000a900460ff168960080160019054906101000a900460ff168980546103a890612634565b80601f01602080910402602001604051908101604052809291908181526020018280546103d490612634565b801561041f5780601f106103f65761010080835404028352916020019161041f565b820191905f5260205f20905b81548152906001019060200180831161040257829003601f168201915b5050505050995088805461043290612634565b80601f016020809104026020016040519081016040528092919081815260200182805461045e90612634565b80156104a95780601f10610480576101008083540402835291602001916104a9565b820191905f5260205f20905b81548152906001019060200180831161048c57829003601f168201915b505050505098508780546104bc90612634565b80601f01602080910402602001604051908101604052809291908181526020018280546104e890612634565b80156105335780601f1061050a57610100808354040283529160200191610533565b820191905f5260205f20905b81548152906001019060200180831161051657829003601f168201915b5050505050975082805461054690612634565b80601f016020809104026020016040519081016040528092919081815260200182805461057290612634565b80156105bd5780601f10610594576101008083540402835291602001916105bd565b820191905f5260205f20905b8154815290600101906020018083116105a057829003601f168201915b505050505092509a509a509a509a509a509a509a509a509a509a50509295989b9194979a5092959850565b5f8054906101000a900473ffffffffffffffffffffffffffffffffffffffff1673ffffffffffffffffffffffffffffffffffffffff163373ffffffffffffffffffffffffffffffffffffffff1614610675576040517f08c379a000000000000000000000000000000000000000000000000000000000815260040161066c906126d4565b60405180910390fd5b5f73ffffffffffffffffffffffffffffffffffffffff168473ffffffffffffffffffffffffffffffffffffffff16036106e3576040517f08c379a00000000000000000000000000000000000000000000000000000000081526004016106da90612762565b60405180910390fd5b8060015f8673ffffffffffffffffffffffffffffffffffffffff1673ffffffffffffffffffffffffffffffffffffffff1681526020019081526020015f205f6101000a81548160ff0219169083600281111561074257610741612096565b5b0217905550828260025f8773ffffffffffffffffffffffffffffffffffffffff1673ffffffffffffffffffffffffffffffffffffffff1681526020019081526020015f209182610793929190612927565b508373ffffffffffffffffffffffffffffffffffffffff167f1b8f42edc9b7affbd109fc6a03d57fbec6495325facd626fac3dd8917a73e3758484846040516107de93929190612a20565b60405180910390a250505050565b6002602052805f5260405f205f91509050805461080890612634565b80601f016020809104026020016040519081016040528092919081815260200182805461083490612634565b801561087f5780601f106108565761010080835404028352916020019161087f565b820191905f5260205f20905b81548152906001019060200180831161086257829003601f168201915b505050505081565b5f60015f8373ffffffffffffffffffffffffffffffffffffffff1673ffffffffffffffffffffffffffffffffffffffff1681526020019081526020015f205f9054906101000a900460ff169050919050565b600160028111156108ed576108ec612096565b5b60015f3373ffffffffffffffffffffffffffffffffffffffff1673ffffffffffffffffffffffffffffffffffffffff1681526020019081526020015f205f9054906101000a900460ff16600281111561094957610948612096565b5b14806109c1575060028081111561096357610962612096565b5b60015f3373ffffffffffffffffffffffffffffffffffffffff1673ffffffffffffffffffffffffffffffffffffffff1681526020019081526020015f205f9054906101000a900460ff1660028111156109bf576109be612096565b5b145b610a00576040517f08c379a00000000000000000000000000000000000000000000000000000000081526004016109f790612ac0565b60405180910390fd5b60038787604051610a12929190612561565b908152602001604051809103902060080160019054906101000a900460ff1615610a71576040517f08c379a0000000000000000000000000000000000000000000000000000000008152600401610a6890612b4e565b60405180910390fd5b428111610ab3576040517f08c379a0000000000000000000000000000000000000000000000000000000008152600401610aaa90612bdc565b60405180910390fd5b60405180610140016040528088888080601f0160208091040260200160405190810160405280939291908181526020018383808284375f81840152601f19601f82011690508083019250505050505050815260200186868080601f0160208091040260200160405190810160405280939291908181526020018383808284375f81840152601f19601f82011690508083019250505050505050815260200184848080601f0160208091040260200160405190810160405280939291908181526020018383808284375f81840152601f19601f8201169050808301925050505050505081526020018281526020015f81526020015f81526020015f1515815260200160405180602001604052805f81525081526020015f151581526020016001151581525060038888604051610be9929190612561565b90815260200160405180910390205f820151815f019081610c0a9190612bfa565b506020820151816001019081610c209190612bfa565b506040820151816002019081610c369190612bfa565b50606082015181600301556080820151816004015560a0820151816005015560c0820151816006015f6101000a81548160ff02191690831515021790555060e0820151816007019081610c899190612bfa565b50610100820151816008015f6101000a81548160ff0219169083151502179055506101208201518160080160016101000a81548160ff0219169083151502179055509050507f142cff0c5db6456d0522bcc45eeb613cc7760ea95440adc0ac1504ffda8cf88387878787878787604051610d099796959493929190612cc9565b60405180910390a150505050505050565b5f60038585604051610d2d929190612561565b908152602001604051809103902090508060080160019054906101000a900460ff16610d8e576040517f08c379a0000000000000000000000000000000000000000000000000000000008152600401610d85906125e9565b60405180910390fd5b8060030154421115610dd5576040517f08c379a0000000000000000000000000000000000000000000000000000000008152600401610dcc90612d97565b60405180910390fd5b806006015f9054906101000a900460ff1615610e26576040517f08c379a0000000000000000000000000000000000000000000000000000000008152600401610e1d90612e25565b60405180910390fd5b806008015f9054906101000a900460ff1615610e77576040517f08c379a0000000000000000000000000000000000000000000000000000000008152600401610e6e90612eb3565b60405180910390fd5b8273ffffffffffffffffffffffffffffffffffffffff163373ffffffffffffffffffffffffffffffffffffffff161480610efb57505f8054906101000a900473ffffffffffffffffffffffffffffffffffffffff1673ffffffffffffffffffffffffffffffffffffffff163373ffffffffffffffffffffffffffffffffffffffff16145b610f3a576040517f08c379a0000000000000000000000000000000000000000000000000000000008152600401610f3190612f41565b60405180910390fd5b5f60015f8573ffffffffffffffffffffffffffffffffffffffff1673ffffffffffffffffffffffffffffffffffffffff1681526020019081526020015f205f9054906101000a900460ff16905060016002811115610f9b57610f9a612096565b5b816002811115610fae57610fad612096565b5b1480610fdd5750600280811115610fc857610fc7612096565b5b816002811115610fdb57610fda612096565b5b145b61101c576040517f08c379a000000000000000000000000000000000000000000000000000000000815260040161101390612fcf565b60405180910390fd5b6004868660405161102e929190612561565b90815260200160405180910390205f8573ffffffffffffffffffffffffffffffffffffffff1673ffffffffffffffffffffffffffffffffffffffff1681526020019081526020015f205f9054906101000a900460ff16156110c4576040517f08c379a00000000000000000000000000000000000000000000000000000000081526004016110bb9061305d565b60405180910390fd5b5f600190506002808111156110dc576110db612096565b5b8260028111156110ef576110ee612096565b5b036110f957600390505b60016004888860405161110d929190612561565b90815260200160405180910390205f8773ffffffffffffffffffffffffffffffffffffffff1673ffffffffffffffffffffffffffffffffffffffff1681526020019081526020015f205f6101000a81548160ff02191690831515021790555083156111915780836004015f82825461118591906130a8565b925050819055506111ac565b80836005015f8282546111a491906130a8565b925050819055505b8473ffffffffffffffffffffffffffffffffffffffff167f8f939c0e8da82099bc9be68995da582362fa8d3032227846326c305b0f2d2e37888887856040516111f894939291906130db565b60405180910390a250505050505050565b6001602052805f5260405f205f915054906101000a900460ff1681565b600482805160208101820180518482526020830160208501208183528095505050505050602052805f5260405f205f915091509054906101000a900460ff1681565b5f8054906101000a900473ffffffffffffffffffffffffffffffffffffffff1681565b5f8054906101000a900473ffffffffffffffffffffffffffffffffffffffff1673ffffffffffffffffffffffffffffffffffffffff163373ffffffffffffffffffffffffffffffffffffffff1614611318576040517f08c379a000000000000000000000000000000000000000000000000000000000815260040161130f906126d4565b60405180910390fd5b5f6003858560405161132b929190612561565b908152602001604051809103902090508060080160019054906101000a900460ff1661138c576040517f08c379a0000000000000000000000000000000000000000000000000000000008152600401611383906125e9565b60405180910390fd5b806006015f9054906101000a900460ff16156113dd576040517f08c379a00000000000000000000000000000000000000000000000000000000081526004016113d490613189565b60405180910390fd5b806008015f9054906101000a900460ff161561142e576040517f08c379a000000000000000000000000000000000000000000000000000000000815260040161142590613217565b60405180910390fd5b6001816006015f6101000a81548160ff021916908315150217905550828282600701918261145d929190612927565b507fe292f74531caa05b1b9e221ec84fcf7162b233980225f118498e336ab9caad39858585856040516114939493929190613235565b60405180910390a15050505050565b5f8054906101000a900473ffffffffffffffffffffffffffffffffffffffff1673ffffffffffffffffffffffffffffffffffffffff163373ffffffffffffffffffffffffffffffffffffffff161461152f576040517f08c379a0000000000000000000000000000000000000000000000000000000008152600401611526906126d4565b60405180910390fd5b5f73ffffffffffffffffffffffffffffffffffffffff168173ffffffffffffffffffffffffffffffffffffffff160361159d576040517f08c379a000000000000000000000000000000000000000000000000000000000815260040161159490612762565b60405180910390fd5b6001805f805f9054906101000a900473ffffffffffffffffffffffffffffffffffffffff1673ffffffffffffffffffffffffffffffffffffffff1673ffffffffffffffffffffffffffffffffffffffff1681526020019081526020015f205f6101000a81548160ff0219169083600281111561161c5761161b612096565b5b02179055505f8054906101000a900473ffffffffffffffffffffffffffffffffffffffff1673ffffffffffffffffffffffffffffffffffffffff167f1b8f42edc9b7affbd109fc6a03d57fbec6495325facd626fac3dd8917a73e37560025f805f9054906101000a900473ffffffffffffffffffffffffffffffffffffffff1673ffffffffffffffffffffffffffffffffffffffff1673ffffffffffffffffffffffffffffffffffffffff1681526020019081526020015f2060016040516116e59291906132ef565b60405180910390a2805f806101000a81548173ffffffffffffffffffffffffffffffffffffffff021916908373ffffffffffffffffffffffffffffffffffffffff160217905550600260015f8373ffffffffffffffffffffffffffffffffffffffff1673ffffffffffffffffffffffffffffffffffffffff1681526020019081526020015f205f6101000a81548160ff0219169083600281111561178c5761178b612096565b5b02179055508073ffffffffffffffffffffffffffffffffffffffff163373ffffffffffffffffffffffffffffffffffffffff167f97c8585e4a067c7f703c47f8c81b944ae318745b9f9c72dd5450cd99b5bc5c6c60405160405180910390a38073ffffffffffffffffffffffffffffffffffffffff167f1b8f42edc9b7affbd109fc6a03d57fbec6495325facd626fac3dd8917a73e37560025f8473ffffffffffffffffffffffffffffffffffffffff1673ffffffffffffffffffffffffffffffffffffffff1681526020019081526020015f2060026040516118709291906132ef565b60405180910390a250565b5f8054906101000a900473ffffffffffffffffffffffffffffffffffffffff1673ffffffffffffffffffffffffffffffffffffffff163373ffffffffffffffffffffffffffffffffffffffff1614611908576040517f08c379a00000000000000000000000000000000000000000000000000000000081526004016118ff906126d4565b60405180910390fd5b5f6003838360405161191b929190612561565b908152602001604051809103902090508060080160019054906101000a900460ff1661197c576040517f08c379a0000000000000000000000000000000000000000000000000000000008152600401611973906125e9565b60405180910390fd5b806006015f9054906101000a900460ff16156119cd576040517f08c379a00000000000000000000000000000000000000000000000000000000081526004016119c490612e25565b60405180910390fd5b806008015f9054906101000a900460ff1615611a1e576040517f08c379a0000000000000000000000000000000000000000000000000000000008152600401611a1590613217565b60405180910390fd5b6001816008015f6101000a81548160ff0219169083151502179055505f816005015482600401541190507f02e0b4ba358513ad0b594703ae447c8bb0a707cec1100e5615ce4b9236b90fe3848483604051611a7b9392919061331d565b60405180910390a150505050565b6003818051602081018201805184825260208301602085012081835280955050505050505f91509050805f018054611ac090612634565b80601f0160208091040260200160405190810160405280929190818152602001828054611aec90612634565b8015611b375780601f10611b0e57610100808354040283529160200191611b37565b820191905f5260205f20905b815481529060010190602001808311611b1a57829003601f168201915b505050505090806001018054611b4c90612634565b80601f0160208091040260200160405190810160405280929190818152602001828054611b7890612634565b8015611bc35780601f10611b9a57610100808354040283529160200191611bc3565b820191905f5260205f20905b815481529060010190602001808311611ba657829003601f168201915b505050505090806002018054611bd890612634565b80601f0160208091040260200160405190810160405280929190818152602001828054611c0490612634565b8015611c4f5780601f10611c2657610100808354040283529160200191611c4f565b820191905f5260205f20905b815481529060010190602001808311611c3257829003601f168201915b505050505090806003015490806004015490806005015490806006015f9054906101000a900460ff1690806007018054611c8890612634565b80601f0160208091040260200160405190810160405280929190818152602001828054611cb490612634565b8015611cff5780601f10611cd657610100808354040283529160200191611cff565b820191905f5260205f20905b815481529060010190602001808311611ce257829003601f168201915b505050505090806008015f9054906101000a900460ff16908060080160019054906101000a900460ff1690508a565b5f604051905090565b5f80fd5b5f80fd5b5f80fd5b5f80fd5b5f80fd5b5f8083601f840112611d6057611d5f611d3f565b5b8235905067ffffffffffffffff811115611d7d57611d7c611d43565b5b602083019150836001820283011115611d9957611d98611d47565b5b9250929050565b5f8060208385031215611db657611db5611d37565b5b5f83013567ffffffffffffffff811115611dd357611dd2611d3b565b5b611ddf85828601611d4b565b92509250509250929050565b5f81519050919050565b5f82825260208201905092915050565b5f5b83811015611e22578082015181840152602081019050611e07565b5f8484015250505050565b5f601f19601f8301169050919050565b5f611e4782611deb565b611e518185611df5565b9350611e61818560208601611e05565b611e6a81611e2d565b840191505092915050565b5f819050919050565b611e8781611e75565b82525050565b5f8115159050919050565b611ea181611e8d565b82525050565b5f610140820190508181035f830152611ec0818d611e3d565b90508181036020830152611ed4818c611e3d565b90508181036040830152611ee8818b611e3d565b9050611ef7606083018a611e7e565b611f046080830189611e7e565b611f1160a0830188611e7e565b611f1e60c0830187611e98565b81810360e0830152611f308186611e3d565b9050611f40610100830185611e98565b611f4e610120830184611e98565b9b9a5050505050505050505050565b5f73ffffffffffffffffffffffffffffffffffffffff82169050919050565b5f611f8682611f5d565b9050919050565b611f9681611f7c565b8114611fa0575f80fd5b50565b5f81359050611fb181611f8d565b92915050565b60038110611fc3575f80fd5b50565b5f81359050611fd481611fb7565b92915050565b5f805f8060608587031215611ff257611ff1611d37565b5b5f611fff87828801611fa3565b945050602085013567ffffffffffffffff8111156120205761201f611d3b565b5b61202c87828801611d4b565b9350935050604061203f87828801611fc6565b91505092959194509250565b5f602082840312156120605761205f611d37565b5b5f61206d84828501611fa3565b91505092915050565b5f6020820190508181035f83015261208e8184611e3d565b905092915050565b7f4e487b71000000000000000000000000000000000000000000000000000000005f52602160045260245ffd5b600381106120d4576120d3612096565b5b50565b5f8190506120e4826120c3565b919050565b5f6120f3826120d7565b9050919050565b612103816120e9565b82525050565b5f60208201905061211c5f8301846120fa565b92915050565b61212b81611e75565b8114612135575f80fd5b50565b5f8135905061214681612122565b92915050565b5f805f805f805f6080888a03121561216757612166611d37565b5b5f88013567ffffffffffffffff81111561218457612183611d3b565b5b6121908a828b01611d4b565b9750975050602088013567ffffffffffffffff8111156121b3576121b2611d3b565b5b6121bf8a828b01611d4b565b9550955050604088013567ffffffffffffffff8111156121e2576121e1611d3b565b5b6121ee8a828b01611d4b565b935093505060606122018a828b01612138565b91505092959891949750929550565b61221981611e8d565b8114612223575f80fd5b50565b5f8135905061223481612210565b92915050565b5f805f806060858703121561225257612251611d37565b5b5f85013567ffffffffffffffff81111561226f5761226e611d3b565b5b61227b87828801611d4b565b9450945050602061228e87828801611fa3565b925050604061229f87828801612226565b91505092959194509250565b5f80fd5b7f4e487b71000000000000000000000000000000000000000000000000000000005f52604160045260245ffd5b6122e582611e2d565b810181811067ffffffffffffffff82111715612304576123036122af565b5b80604052505050565b5f612316611d2e565b905061232282826122dc565b919050565b5f67ffffffffffffffff821115612341576123406122af565b5b61234a82611e2d565b9050602081019050919050565b828183375f83830152505050565b5f61237761237284612327565b61230d565b905082815260208101848484011115612393576123926122ab565b5b61239e848285612357565b509392505050565b5f82601f8301126123ba576123b9611d3f565b5b81356123ca848260208601612365565b91505092915050565b5f80604083850312156123e9576123e8611d37565b5b5f83013567ffffffffffffffff81111561240657612405611d3b565b5b612412858286016123a6565b925050602061242385828601611fa3565b9150509250929050565b5f6020820190506124405f830184611e98565b92915050565b61244f81611f7c565b82525050565b5f6020820190506124685f830184612446565b92915050565b5f805f806040858703121561248657612485611d37565b5b5f85013567ffffffffffffffff8111156124a3576124a2611d3b565b5b6124af87828801611d4b565b9450945050602085013567ffffffffffffffff8111156124d2576124d1611d3b565b5b6124de87828801611d4b565b925092505092959194509250565b5f6020828403121561250157612500611d37565b5b5f82013567ffffffffffffffff81111561251e5761251d611d3b565b5b61252a848285016123a6565b91505092915050565b5f81905092915050565b5f6125488385612533565b9350612555838584612357565b82840190509392505050565b5f61256d82848661253d565b91508190509392505050565b7f476f7665726e616e636552656769737472793a2070726f706f73616c20646f655f8201527f73206e6f74206578697374000000000000000000000000000000000000000000602082015250565b5f6125d3602b83611df5565b91506125de82612579565b604082019050919050565b5f6020820190508181035f830152612600816125c7565b9050919050565b7f4e487b71000000000000000000000000000000000000000000000000000000005f52602260045260245ffd5b5f600282049050600182168061264b57607f821691505b60208210810361265e5761265d612607565b5b50919050565b7f476f7665726e616e636552656769737472793a2063616c6c6572206973206e6f5f8201527f742074686520456c646572000000000000000000000000000000000000000000602082015250565b5f6126be602b83611df5565b91506126c982612664565b604082019050919050565b5f6020820190508181035f8301526126eb816126b2565b9050919050565b7f476f7665726e616e636552656769737472793a20696e76616c696420616464725f8201527f6573730000000000000000000000000000000000000000000000000000000000602082015250565b5f61274c602383611df5565b9150612757826126f2565b604082019050919050565b5f6020820190508181035f83015261277981612740565b9050919050565b5f82905092915050565b5f819050815f5260205f209050919050565b5f6020601f8301049050919050565b5f82821b905092915050565b5f600883026127e67fffffffffffffffffffffffffffffffffffffffffffffffffffffffffffffffff826127ab565b6127f086836127ab565b95508019841693508086168417925050509392505050565b5f819050919050565b5f61282b61282661282184611e75565b612808565b611e75565b9050919050565b5f819050919050565b61284483612811565b61285861285082612832565b8484546127b7565b825550505050565b5f90565b61286c612860565b61287781848461283b565b505050565b5b8181101561289a5761288f5f82612864565b60018101905061287d565b5050565b601f8211156128df576128b08161278a565b6128b98461279c565b810160208510156128c8578190505b6128dc6128d48561279c565b83018261287c565b50505b505050565b5f82821c905092915050565b5f6128ff5f19846008026128e4565b1980831691505092915050565b5f61291783836128f0565b9150826002028217905092915050565b6129318383612780565b67ffffffffffffffff81111561294a576129496122af565b5b6129548254612634565b61295f82828561289e565b5f601f83116001811461298c575f841561297a578287013590505b612984858261290c565b8655506129eb565b601f19841661299a8661278a565b5f5b828110156129c15784890135825560018201915060208501945060208101905061299c565b868310156129de57848901356129da601f8916826128f0565b8355505b6001600288020188555050505b50505050505050565b5f6129ff8385611df5565b9350612a0c838584612357565b612a1583611e2d565b840190509392505050565b5f6040820190508181035f830152612a398185876129f4565b9050612a4860208301846120fa565b949350505050565b7f476f7665726e616e636552656769737472793a2063616c6c6572206973206e6f5f8201527f742061206d656d626572206f7220456c64657200000000000000000000000000602082015250565b5f612aaa603383611df5565b9150612ab582612a50565b604082019050919050565b5f6020820190508181035f830152612ad781612a9e565b9050919050565b7f476f7665726e616e636552656769737472793a2070726f706f73616c20616c725f8201527f6561647920657869737473000000000000000000000000000000000000000000602082015250565b5f612b38602b83611df5565b9150612b4382612ade565b604082019050919050565b5f6020820190508181035f830152612b6581612b2c565b9050919050565b7f476f7665726e616e636552656769737472793a20646561646c696e65206d75735f8201527f7420626520696e20746865206675747572650000000000000000000000000000602082015250565b5f612bc6603283611df5565b9150612bd182612b6c565b604082019050919050565b5f6020820190508181035f830152612bf381612bba565b9050919050565b612c0382611deb565b67ffffffffffffffff811115612c1c57612c1b6122af565b5b612c268254612634565b612c3182828561289e565b5f60209050601f831160018114612c62575f8415612c50578287015190505b612c5a858261290c565b865550612cc1565b601f198416612c708661278a565b5f5b82811015612c9757848901518255600182019150602085019450602081019050612c72565b86831015612cb45784890151612cb0601f8916826128f0565b8355505b6001600288020188555050505b505050505050565b5f6080820190508181035f830152612ce281898b6129f4565b90508181036020830152612cf78187896129f4565b90508181036040830152612d0c8185876129f4565b9050612d1b6060830184611e7e565b98975050505050505050565b7f476f7665726e616e636552656769737472793a20766f74696e6720706572696f5f8201527f642068617320656e646564000000000000000000000000000000000000000000602082015250565b5f612d81602b83611df5565b9150612d8c82612d27565b604082019050919050565b5f6020820190508181035f830152612dae81612d75565b9050919050565b7f476f7665726e616e636552656769737472793a2070726f706f73616c206861735f8201527f206265656e207665746f65640000000000000000000000000000000000000000602082015250565b5f612e0f602c83611df5565b9150612e1a82612db5565b604082019050919050565b5f6020820190508181035f830152612e3c81612e03565b9050919050565b7f476f7665726e616e636552656769737472793a2070726f706f73616c206973205f8201527f616c72656164792066696e616c697a6564000000000000000000000000000000602082015250565b5f612e9d603183611df5565b9150612ea882612e43565b604082019050919050565b5f6020820190508181035f830152612eca81612e91565b9050919050565b7f476f7665726e616e636552656769737472793a206e6f7420617574686f72697a5f8201527f656420746f20766f746520666f72207468697320616464726573730000000000602082015250565b5f612f2b603b83611df5565b9150612f3682612ed1565b604082019050919050565b5f6020820190508181035f830152612f5881612f1f565b9050919050565b7f476f7665726e616e636552656769737472793a20766f746572206973206e6f745f8201527f2061206d656d626572206f7220456c6465720000000000000000000000000000602082015250565b5f612fb9603283611df5565b9150612fc482612f5f565b604082019050919050565b5f6020820190508181035f830152612fe681612fad565b9050919050565b7f476f7665726e616e636552656769737472793a20766f7465722068617320616c5f8201527f726561647920766f746564000000000000000000000000000000000000000000602082015250565b5f613047602b83611df5565b915061305282612fed565b604082019050919050565b5f6020820190508181035f8301526130748161303b565b9050919050565b7f4e487b71000000000000000000000000000000000000000000000000000000005f52601160045260245ffd5b5f6130b282611e75565b91506130bd83611e75565b92508282019050808211156130d5576130d461307b565b5b92915050565b5f6060820190508181035f8301526130f48186886129f4565b90506131036020830185611e98565b6131106040830184611e7e565b95945050505050565b7f476f7665726e616e636552656769737472793a2070726f706f73616c20616c725f8201527f65616479207665746f6564000000000000000000000000000000000000000000602082015250565b5f613173602b83611df5565b915061317e82613119565b604082019050919050565b5f6020820190508181035f8301526131a081613167565b9050919050565b7f476f7665726e616e636552656769737472793a2070726f706f73616c20616c725f8201527f656164792066696e616c697a6564000000000000000000000000000000000000602082015250565b5f613201602e83611df5565b915061320c826131a7565b604082019050919050565b5f6020820190508181035f83015261322e816131f5565b9050919050565b5f6040820190508181035f83015261324e8186886129f4565b905081810360208301526132638184866129f4565b905095945050505050565b5f815461327a81612634565b6132848186611df5565b9450600182165f811461329e57600181146132b4576132e6565b60ff1983168652811515602002860193506132e6565b6132bd8561278a565b5f5b838110156132de578154818901526001820191506020810190506132bf565b808801955050505b50505092915050565b5f6040820190508181035f830152613307818561326e565b905061331660208301846120fa565b9392505050565b5f6040820190508181035f8301526133368185876129f4565b90506133456020830184611e98565b94935050505056fea264697066735822122038110a15474a7a7a995c415bbc828ad97c4946fcb62695585ef89aba49b4733a64736f6c63430008180033",
  "linkReferences": {},
  "deployedLinkReferences": {}
}